:020000040800F2
:1000000040500020590200088F4800088F1C00084B
:100010008D480008F5050008115A0008000000008E
:100020000000000000000000000000009D0100082A
:100030001F06000800000000F1010008115400082C
:1000400073020008730200087302000873020008BC
:1000500073020008730200087302000873020008AC
:10006000730200087302000873020008730200089C
:10007000730200087302000873020008730200088C
:10008000730200087302000873020008730200087C
:10009000730200087302000873020008730200086C
:1000A000730200087302000873020008730200085C
:1000B000730200087302000873020008730200084C
:1000C000730200087302000873020008730200083C
:1000D00073020008055A0008730200087302000842
:1000E000730200087302000873020008730200081C
:1000F000730200087302000873020008730200080C
:1001000073020008730200087302000873020008FB
:100110007302000873020008730200080D550008FE
:1001200073020008730200087302000873020008DB
:1001300073020008730200087302000873020008CB
:1001400073020008730200087302000873020008BB
:1001500073020008730200087302000873020008AB
:10016000730200087302000873020008730200089B
:100170007302000873020008730200080000000008
:100180007302000873020008DFF80CD000F0CEF90B
:1001900000480047B56C0008405000202B4B196800
:1001A0000868B0E8F04F80F30988BFF36F8F4FF015
:1001B000000080F3118870470000000006480068C6
:1001C000006880F3088862B661B6BFF34F8FBFF353
:1001D0006F8F00DF00BF00BF08ED00E0DFF80C000C
:1001E000016841F470010160704700BF88ED00E0D4
:1001F000EFF30980BFF36F8F144B1A681EF0100FD6
:1002000008BF20ED108A20E9F04F106008B44FF0CD
:10021000500080F31188BFF34F8FBFF36F8F07F04B
:10022000CFFC4FF0000080F3118808BC1968086803
:10023000B0E8F04F1EF0100F08BFB0EC108A80F34A
:100240000988BFF36F8F704700BF00BF6C000020AC
:10025000EFF30580704700000648804706480047D6
:10026000FEE7FEE7FEE7FEE7FEE7FEE7FEE7FEE766
:10027000FEE7FEE7B9540008890100082DE9F05FA8
:100280000546002092469B46884606468146402405
:100290001BE0284641464746224600F0D9F853461F
:1002A0005A46C01A914110D311461846224600F012
:1002B000C0F82D1A67EB01084F46224601200021A5
:1002C00000F0B7F817EB00094E41201EA4F101041D
:1002D000DFDC484631462A464346BDE8F09F40EA07
:1002E00001039B0703D009E008C9121F08C0042AB4
:1002F000FAD203E011F8013B00F8013B521EF9D29B
:1003000070472DE9FE4F81EA030404F0004421F018
:10031000004100944FF0000B23F0004350EA010429
:100320005ED052EA03045BD0C3F30A54C1F30A550A
:100330002C44A4F2F3340194A0FB0254C1F3130142
:1003400041F48011C3F3130343F4801301FB02440F
:1003500000FB034E840A970A44EA815447EA835714
:10036000A4FB076802958D0A05FB07854FEA932CCD
:1003700004FB0C542705029D4FEA065847EA16373E
:10038000B5EB08056EEB070C870E920E47EA811756
:1003900042EA8312A7FB0201B6EB0B0164EB0004F7
:1003A0002B0D43EA0C335E1844EB1C50DA465146E1
:1003B000E7FB0201C5F313044FEA0B3343EA14537E
:1003C0004FEA0432019C43EA0603A4F10C040294B0
:1003D000009CCDE900B400F05AF803B0BDE8F08FFE
:1003E00000200146F9E70EB540F2334102910021A9
:1003F000CDE900110A460B4600F049F803B000BDF4
:10040000C1F30A5210B5C1F3130140F2FF3341F4B6
:1004100080119A4201DA002010BD40F233439A4223
:10042000A2F2334203DC524200F012F810BD9040B9
:1004300010BD202A04DB203A00FA02F100207047A8
:100440009140C2F1200320FA03F319439040704712
:10045000202A04DB203A21FA02F00021704721FA19
:1004600002F3D040C2F12002914008431946704780
:1004700010B5141E73F1000408DA401C41F10001AC
:1004800092185B411A4301D120F0010010BD2DE903
:10049000F04D92469B4611B1B1FA81F202E0B0FAFA
:1004A00080F220329046FFF7C4FF04460F4640EA30
:1004B0000A0041EA0B0153465A46084313D011463D
:1004C00053EA010019D0C8F140025046FFF7C0FFBF
:1004D00005460E46504659464246FFF7AAFF0843D6
:1004E00005D0012004E020463946BDE8F08D00200B
:1004F000054346EAE0762C4337430A986305E40A4D
:10050000A0EB08000022FD0A44EA47540A3002D555
:1005100000200146E9E7010510196941DDE90845B8
:1005200000196941BDE8F04DA2E70000064C074DF7
:1005300006E0E06840F0010394E8070098471034B3
:10054000AC42F6D3FFF724FEC0CE0008E0CE000890
:100550000146014800F082BF0C01002010B504489C
:1005600000F08EFF042801D0012010BD002010BD36
:100570000C01002038B501208DF800009DF8000026
:10058000012801D0012038BD064800F08FFF04008B
:1005900006D14FF40061034800F036FE00B101249B
:1005A000204638BD0C010020134610B50A4601460E
:1005B0000024034800F0F2FF00B10124204610BDE2
:1005C0000C01002003484FF0FF320121406806F083
:1005D00055BC00001C000020134610B50A46014619
:1005E0000024034801F058F800B10124204610BD52
:1005F0000C010020FEE730B50468256825F480254D
:100600002560046863608368402B036803D09960A9
:100610000068C26030BD9A600068C16030BD70473C
:10062000002200F001B8000030B50E4B0546012055
:100630005C7A002C14D1587A1C54587A03EB800051
:1006400045605D7A03F108002A54587A421C5A72B8
:10065000303008703A2048702F208870CC7000200D
:1006600030BD0000D03F002070B5B3F5804F05D0FD
:100670006FF0704140F82210002070BD50F8224009
:10068000084B8E891C40D1E9003543EA05138D687B
:1006900089692D0245EA06452B430B43234340F865
:1006A0002230E9E70000F0CFF0B50C6850F82430B4
:1006B000114A1340D1E90125D1E903672A433E439A
:1006C00032434E6932438E693243CE6932430E6AF9
:1006D00032434E6A32438E6A3243CE6A3243CE6B25
:1006E000096B32430A431A43082D01D142F04002FC
:1006F00040F824200020F0BD8000F0FF30B500EB72
:10070000820250688D8900F04043D1E9000440EA3C
:1007100004108C68240244EA054420430C8A074DE7
:1007200005EB045420430C7D6D0105EB04648969DD
:100730002043084318435060002030BD0000F0FF04
:1007400000B59BB04FF0204000901548019014ABCD
:1007500002200121082283E80700CDE91710199033
:1007600000200421CDE9021010211A90CDE90401E6
:100770000690079009020890CDE909010B900C90B2
:100780000D9014AA0E901146684600F0FFFF002855
:1007900003D02A2103A005F03CF91BB000BD0000E6
:1007A000040100A02E2E5C48617264776172655C62
:1007B0005352414D5C7372616D2E630090F8351099
:1007C000022903D08021416501207047052180F86E
:1007D00035100068016821F00101016000207047B8
:1007E0002DE9F0410446866D90F83400002501287B
:1007F0000DD0012084F8340094F835700020012FCA
:1008000007D084F8340002252846BDE8F081022094
:10081000FBE7022784F8357060652046FFF7EBFEA2
:1008200094F85C103F208840B0602068016841F077
:10083000160101602068416941F080014161206C2E
:1008400020B12068016841F008010160206801685A
:1008500041F001010160D7E770B5044600F040F9AE
:100860000546601C02D004480078044400F038F9C2
:10087000401BA042FAD370BD3C000020F0B52148D7
:1008800087B0016800293AD1012101601E48002487
:10089000016841F0010101600068022500F00100DB
:1008A00005904FF23F00CDE9000502AA03260C2770
:1008B00082E8D0006946154800F030F840F23F4029
:1008C000CDE9000502AA694682E8D000104800F090
:1008D00025F84FF68370CDE9000502AA694682E843
:1008E000D0000C4800F01AF84FF63370CDE900053F
:1008F00002AA694682E8D000074800F00FF807B066
:10090000F0BD0000300000203838024000140240E2
:100910000018024000100240000C02402DE9F84F80
:10092000DFF87CB100224FF001084FF0030A4FF0CE
:100930000F090BF1040E00BF0B6808FA02F4234004
:10094000A3426ED14D68022D01D0122D0ED1D508D3
:1009500000EB850CDCF820505607F70E09FA07F675
:10096000B5430E69BE402E43CCF8206006685500A2
:100970000F790AFA05FC07F0030726EA0C06AF40D8
:10098000374307604E68012E05D0022E03D0112E8A
:1009900001D0122E0ED18668CF6826EA0C06AF4031
:1009A000374387604668A6430C79C4F3001494402B
:1009B00034434460C6688C6826EA0C06AC40344375
:1009C000C4604C68E40065D5364C256845F4804524
:1009D0002560246822F0030504F480440094324C1E
:1009E0002E19D6F8084895072F0F09FA07F5AC43DA
:1009F0002E4DA84201D1002524E02D4DA84201D161
:100A000001251FE02B4DA84201D102251AE02A4DF5
:100A1000A84201D1032515E0284DA84202D10425A2
:100A200010E037E0264DA84201D105250AE0254D0A
:100A3000A84201D1062505E0234DA84201D1072592
:100A400000E00825BD402543C6F80858DBF8004003
:100A50005D464E689C43F60300D51C432C60DEF8CF
:100A6000004075464E689C43B60300D51C432C607D
:100A70000B4D08352C684E689C43F60200D51C438C
:100A80002C60074D0C352C684E689C43B60200D58F
:100A90001C432C60521C102AFFF44EAFBDE8F88FA7
:100AA000003C014044380240003001400000024058
:100AB0000004024000080240000C02400010024006
:100AC0000014024000180240001C024042694A40E3
:100AD000426170470AB1816170470904FBE7000079
:100AE00001488068704700003C000020024881688F
:100AF00002781144816070473C0000200B4810B51B
:100B0000016841F400710160016841F48061016095
:100B1000016841F480710160032000F0B1F8002009
:100B200000F006F800F03EF8002010BD003C024046
:100B300010B5014688B00022372000F081F8372038
:100B400000F072F813480024016841F020010160B0
:100B5000006805A900F020000690684600F042F900
:100B600000F066F90C494000B0FBF1F10C480B4A6B
:100B7000491E026040F2E732C0E90324C0E90114D3
:100B800000F053FE10B1012008B010BD044800F081
:100B900068FEF9E74038024040420F000014004070
:100BA000D00100201F4808B5016841F48041016070
:100BB000006800F4804000901A48001F016841F06E
:100BC00080510160006800F080500090032000F028
:100BD00057F8002211466FF00B0000F031F80022A8
:100BE00011466FF00A0000F02BF8002211466FF05A
:100BF000090000F025F800221146501F00F020F8EF
:100C000000221146101F00F01BF800220F21901E39
:100C100000F016F800220F21BDE80840501E00F039
:100C20000FB800004438024000F01F02012191403B
:100C30004009800000F1E020C0F80011704700007A
:100C4000F0B40E4B1B680C46C3F30223C3F1070537
:100C5000042D00D90425191D072901D2002300E025
:100C6000DB1E012606FA05F1491E214099409E40EF
:100C7000761E16403143F0BC03F00BBE0CED00E0D5
:100C8000064900F0070208684FF6FF03184040EAE3
:100C90000220034A10430860704700000CED00E09A
:100CA0000000FA05704700002DE9F0470E460500E8
:100CB00065D0DFF81481D8F80000F7B200F00F001B
:100CC000B04207D288F80070D8F8000000F00F009A
:100CD000B04254D128683D4C810712D5400703D556
:100CE000206840F4E05020602878000703D5206891
:100CF00040F4604020602068A96820F0F0000843BC
:100D000020602878C0072DD030496868083901284C
:100D100012D0022813D0032811D0096889070029AE
:100D20002DDA216821F0030101432160FFF7D8FE8D
:100D3000814641F2883A0EE009688903EFE70968C5
:100D40008901ECE7FFF7CCFEA0EB0901514502D980
:100D50000320BDE8F0872068696800F00C00B0EB64
:100D6000810FEFD1D8F80010404601F00F01B142D9
:100D700007D90770006800F00F00B04201D00120D1
:100D8000E7E72878400705D52068E96820F4E050B7
:100D9000084320602878000706D52068296920F4D8
:100DA000604040EAC100206000F062F82168084A13
:100DB000C1F30311515CC840064908600020FFF7E9
:100DC000B7FE0020C5E70000003C024008380240A2
:100DD000C08600083800002001490120C86470471F
:100DE000000047420F2202600C4A136803F003031D
:100DF0004360136803F0F0038360136803F4E05367
:100E0000C36012684FF4E05303EAD202026104485F
:100E1000006800F00F0008607047000008380240CA
:100E2000003C024001480068704700003800002084
:100E30000448054900680968044AC1F38221515CED
:100E4000C84070473800002008380240D0860008AB
:100E50000448054900680968044AC1F34231515CFD
:100E6000C84070473800002008380240D08600088B
:100E7000154810B5006810F00C02144813D041104A
:100E8000042A0FD0082A0ED10F4C241F2268236891
:100E900002F03F025B0207D52068C0F38810A0FB78
:100EA000010106E0084610BD2168C1F38811A1FBCD
:100EB00000010023FFF7E2F92168C1F30141491C59
:100EC0004900B0FBF1F010BD083802400024F400E6
:100ED000054810B50068000605D5FFF7E3FE024996
:100EE0008020891C087010BD0C3802402DE9F84F95
:100EF000050076D02878DFF8F8B2BE4CC00749D09C
:100F0000DBF800105846C1F38101012908D00068C0
:100F1000C0F3810002280AD1201D0068400206D5D6
:100F20002068800336D568680028E2D032E068681F
:100F3000B0F5803F10D0B0F5A02F206810D020F47D
:100F400080302060206820F4802020606868A0B194
:100F5000FFF7C6FD06460CE0206840F48030F4E759
:100F600040F480202060F7E7FFF7BAFD801B64287B
:100F700073D820688003F7D50CE0FFF7B1FD064673
:100F800005E000BFFFF7ACFD801B6428F0D82068A7
:100F90008003F7D42878DFF8608280074FF00009DB
:100FA0003ED5DBF80010584611F00C0F09D0006850
:100FB000C0F3810002280BD18D48001F0068400259
:100FC00006D42068800715D5E868012809D111E00A
:100FD000E868B8B10120C8F80000FFF781FD0646B7
:100FE00005E002E1FFF77CFD801B0228C0D82068E5
:100FF0008007F7D52068296920F0F80040EAC10091
:1010000020600DE0C8F80090FFF76AFD064604E096
:10101000FFF766FD801B02281FD820688007F7D4E1
:101020002878000722D5724E744869696C3671B110
:1010300001210160FFF754FD074604E0FFF750FD72
:10104000C01B022809D830688007F7D50EE0C0F829
:101050000090FFF745FD074605E083E0FFF740FD00
:10106000C01B02287ED830688007F7D42878400754
:1010700068D5DFF87CA100270AF1380ADAF8000009
:10108000C0000BD4DAF8001041F08051CAF800100B
:10109000DAF80000012700F080500090584E3068C8
:1010A000C00510D4306840F480703060FFF718FD40
:1010B000009005E0FFF714FD0099401A022851D86E
:1010C0003068C005F6D54A4EA868683601280FD0AA
:1010D0000528306810D020F001003060306820F022
:1010E00004003060A868B8B1FFF7FAFC00900FE088
:1010F000306840F00100F4E740F004003060F7E7AA
:10110000FFF7EEFC0099411A41F28830814264D821
:1011100030688007F4D50EE0FFF7E2FC009007E0AE
:10112000FFF7DEFC0099411A41F28830814254D821
:1011300030688007F4D42FB1DAF8001021F0805124
:10114000CAF80010A869C0B3DBF80010C1F3810130
:1011500002294AD00228484607D0C8F86000FFF7A5
:10116000BFFC00E039E005463AE04746C8F86000B9
:10117000FFF7B6FC064604E0FFF7B2FC801B02282E
:101180002BD820688001F7D4D5E907010843A96A64
:101190001C4A490802EB01416A6A41EA821108438C
:1011A00095F82C1040EA01611148001F01600120F0
:1011B0003866FFF795FC054605E014E0FFF790FC64
:1011C000401B022809D820688001F7D50BE000BF3A
:1011D000FFF786FC401B022802D90320BDE8F88FE8
:1011E00020688001F4D40020F8E70120F6E7000031
:1011F000083802400038024000004742800E474253
:10120000007000400000FFFFFEB5044603200D46BD
:1012100084F83400606C032820D0B5F5805F1DD0C1
:10122000B5F5006F05D045B1A06B40F00060A0633C
:1012300009E0204604F01EF802E0204603F0F3FF28
:10124000A16B0143A163A06B012658B1216840F254
:10125000FF50886384F834600120FEBDA06B40F02D
:101260008050E4E7211DD4E905700EC90095CDE951
:101270000170206803F039FB84F834600020FEBD63
:101280007047F0B5426E120E93090B70C2F38303E0
:101290004B7002F003028A70426E120CCA70B0F8F2
:1012A0006420120A0A7190F864204A71826E4FF627
:1012B000FF73120E03EA0212CA80826ECB88C2F359
:1012C000074243EA1213CB8002F00F020A72B0F811
:1012D0006820C2F30722D3094B72C2F380138B72CA
:1012E000C2F34013CB72C2F300130B7300264E738C
:1012F000446C4FF4007701236CB1012C43D0026899
:1013000040F2FF519163816B41F08051816380F81D
:1013100034300120F0BD9207120D0A6190F8682068
:101320000C6944EA82020A61C26E0C69120E44EA38
:1013300092140C61C2F3C2040C7502F007024A75E4
:10134000C26EC2F3074254098C75C2F38204CC7595
:101350009207520F0A76B0F86C20C2F307240A7E77
:1013600042EAD4120A760A69521C42650D7EAD1C0F
:10137000AA4042650D7A03FA05F585656D0A6A4350
:10138000C0E917271CE090F868209206920A0A61CB
:10139000C26E0C69120E44EA02220A61C26E0C6926
:1013A000C2F3074214430C61B0F86C20C2F3072467
:1013B0000A69521C4FEA82224265C0E9167207662A
:1013C000C4F3801201F8192F4FEA84624FEA526287
:1013D0004A7010F86C2F4C7844EAD2144C7002F02A
:1013E0007F028A7042684FEA12624FEAD214CC70D0
:1013F000C2F341140C71C2F382044C714FEA827241
:101400004FEA12728A7142688C79C2F3074244EA49
:1014100092148C71C2F34014CC710E7202F001026E
:101420004A728288C2F307224FEAD2148C72C2F346
:101430008014CC72C2F340140C73C2F300144C73CA
:10144000C2F381048C7302F00302CA7300794FEA7D
:10145000500008744B744FF00000F0BD426C0A60FD
:10146000826C4A60C26C8A60026DCA60426D0A6119
:10147000826D4A61C26D8A61006EC861002070474A
:1014800070B50446B0F8500000250104206803F050
:10149000A6FB18B1A16B0143A16304E00021206801
:1014A00003F01DFA0546C5F3432070BD70B5040076
:1014B00004D094F83400002510B105E0012070BD7F
:1014C0002577204600F038F8032084F834002046C1
:1014D00000F008F8A5632563012084F8340000209B
:1014E00070BD0000FEB50025044676200095CDE9CC
:1014F00001502B462A462946206803F0F6F90D4E86
:1015000046F8A05F206803F002FA0125356002204A
:10151000FFF7A2F9204603F035FE20B9204603F07C
:10152000BEFD002805D084F83450A16B0143A163AF
:101530000120FEBD00802542F0B50068134987B048
:10154000884221D112480024016841F40061016001
:101550000068022500F4006005904FF4F850CDE9D2
:10156000000502AA03260C2782E8D0006946094834
:10157000FFF7D4F90420CDE9000502AA694682E804
:10158000D0000548FFF7CAF907B0F0BD002C0140B4
:101590004438024000080240000C02402DE9F043AC
:1015A000154687B01F460A00044607D094F8340059
:1015B000012807D0022007B0BDE8F083A06B40F0FF
:1015C000006008E00020A063E36DE919994204D9A6
:1015D000A06B40F00070A06351E0032184F8341048
:1015E00021688146C8622168CB6B43F49573CB6355
:1015F000E36B24494FEA4728D963E36B2249D96456
:10160000E16B4FEA980308652168E06B8031FFF7D2
:10161000E7F81E4801260660606C012800D06D02C4
:101620004FF0FF30CDE9000890200290022005968F
:10163000CDE903096946206803F03BF94FF40071D6
:10164000206803F0AFF940F2FF5880B9012F06D9A6
:10165000822020632946206803F032FA05E08120C9
:1016600020632946206803F044FA0028A3D02268AA
:10167000C2F83880A16B0143A16384F83460012073
:1016800099E700007F4F0008294F00088C8525420C
:1016900010B5FEF797FF10BD2DE9F04F87B01F463C
:1016A00015465FEA010B044607D094F83400012880
:1016B00007D0022007B0BDE8F08FA06B40F00060BB
:1016C00008E00020A063E26DE919914204D9A06B03
:1016D00040F00070A06339E0032184F834102168E1
:1016E0008046C8622168CA6B42F01A02CA63226C43
:1016F0002349D163226C2349D164216C0865606C55
:10170000012800D06D024FF40071206803F04AF9FF
:10171000012640F2FF5988B94FF0900A012F06D9EF
:10172000A02020632946206803F0A4FA05E0C4F84D
:1017300030A02946206803F0B6FA48B12268C2F802
:101740003890A16B0143A16384F834600120B1E7B4
:101750000D48066022687D02AB0859468032206C35
:10176000FFF73EF84FF0FF308DE82104CDE9048605
:10177000CDF80C806946206803F09BF8002099E7BB
:10178000BD4F0008294F00088C85254270B51546CD
:101790000E46040003D094F8490010B107E0012080
:1017A00070BD002084F84800204600F01AF804F1CB
:1017B00008012068FEF778FF3146A2682068FEF72E
:1017C0009DFFD4E901022946236BFEF74DFFA16876
:1017D000206850F8212042F0010240F8212000202A
:1017E00070BDFFF74BB84FF0E0210428086903D023
:1017F00020F004000861704740F00400FAE710B5DB
:10180000401EB0F1807F01D3012010BD4FF0E024D5
:1018100060610F21601703F03CF80020A0610720F1
:101820002061002010BD7047704710B5040003D040
:1018300094F8390010B107E0012010BD002084F8B1
:101840003800204600F00CF8022084F83900211DF1
:10185000206803F061FE012084F83900002010BDEB
:1018600070470168CA6842F00102CA6000680168F6
:1018700041F00101016000207047704770B50446D7
:10188000006801694FF00005C943890715D4C16894
:10189000C943890711D4E91E01610120207620681F
:1018A00080698007204602D0FFF7E7FF04E000F0E0
:1018B00098F8204600F096F8257620680169C9431B
:1018C000490717D4C168C943490713D46FF004010D
:1018D0000161022020762068806910F4407F204654
:1018E00002D0FFF7CAFF04E000F07BF8204600F0CA
:1018F00079F8257620680169C943090716D4C168BB
:10190000C943090712D46FF0080101610420207651
:101910002068C0698007204602D0FFF7AEFF04E0D0
:1019200000F05FF8204600F05DF825762068016938
:10193000C943C90617D4C168C943C90613D46FF097
:1019400010010161082020762068C06910F4407FF2
:10195000204602D0FFF791FF04E000F042F8204655
:1019600000F040F8257620680169C943C90708D10D
:10197000C168C943C90704D1891E0161204600F02E
:1019800033F820680169C943090609D4C168C9430D
:10199000090605D46FF0800101612046FFF743FF7F
:1019A00020680169C943490609D4C168C943490689
:1019B00005D46FF040010161204600F01FF8206857
:1019C0000169C94389060BD4C168C943890607D494
:1019D0006FF0200101612046BDE87040FFF724BF91
:1019E00070BD70477047000000680349884201D10C
:1019F000FFF77CB870470000001400407047704744
:101A000070B5026804461068D168536910F00F0F72
:101A100050D003F0010501F4907635435DD0C20744
:101A200005D0CA0503D5E26B42F00102E26342072A
:101A300005D5DA0703D0E26B42F00202E2638207C7
:101A400005D5DA0703D0E26B42F00402E263020735
:101A500005D5DA0703D0E26B42F00802E263E26BDD
:101A6000002A33D0800604D5880602D5204603F02C
:101A7000C9FD20684069E16BC0F38010090700D4FC
:101A800028B3204603F0B0FD2068416949061AD505
:101A9000416921F040014161606BA0B11B490165C2
:101AA000606BFEF78BFE002810D0606B016DBDE807
:101AB00070400847830610D58B060ED52046BDE83A
:101AC000704003F09FBD2046FFF799FF70BD204690
:101AD000FFF795FF0020E06370BD030606D50B06F7
:101AE00004D52046BDE8704003F028BF4006F3D57A
:101AF0004806F1D5D168204621F04001D16020216F
:101B000084F8391000F0C2F870BD0000D955000803
:101B100070B5040004D094F83900002510B106E037
:101B2000012070BD84F83850204600F023F82420AE
:101B300084F839002068C16821F40051C160204652
:101B400003F0A6FD2068016921F49041016120683D
:101B5000416921F02A0141612068C16841F40051C6
:101B6000C160E563202084F8390084F83A00002041
:101B700070BD000000B50068124987B088421FD1CF
:101B80001148016841F0100101600068694600F0E9
:101B9000100005904FF4C0600090022001900120D9
:101BA000029003200390072004900848FEF7B6FE39
:101BB000002205212520FFF743F82520FFF734F800
:101BC00007B000BD00100140443802400000024050
:101BD00070472DE9F843044690F839001F46164631
:101BE0000D46202850D1A5B19EB194F838000128A7
:101BF0004AD0012084F838004FF00008C4F83C8037
:101C0000212084F83900FEF76BFFA6848146E68424
:101C100026E00120BDE8F883E08C401EE084A06847
:101C20004B46B0F5805F4FF000024FF08001204638
:101C3000009703D003F0B3FEE8B90DE003F0AFFE68
:101C4000C8B928882168C0F308004860206908B135
:101C50006D1C05E0AD1C03E0216815F8010B486020
:101C6000E08C0028D8D14B46002240212046009726
:101C700003F095FE08B10320CCE7202084F839005A
:101C800084F838800020C5E70220C3E77047FEE7EC
:101C900070B50B490646002408884D882146454307
:101CA000204602F0BDFB02F0F1FCB0B24FF0D8418B
:101CB00003E000BFA1F88000641CAC42FAD370BD01
:101CC0002C4000202DE9F04F33492C240A4688711E
:101CD0002A2592882B2645F2105B4FF4305E4FF494
:101CE00048774FF0F00949F2413A4FF4A07845F2B5
:101CF000103C4FF4F07358B1A1F80080A1F80290A5
:101D0000524501D0624529D10C814D818E8139E047
:101D1000A1F80090A1F80280524501D0624508D197
:101D20000C814D818E81624531D1A1F800804B80BC
:101D30002DE05A4508D1A1F808E04FF42850488119
:101D40004FF42C50888106E0A2F5C85063381ED1AC
:101D50000C814E818D810B804F8018E05A4508D14F
:101D6000A1F808E04FF4285048814FF42C508881A6
:101D700006E0A2F5C850633804D10C814D818E81F4
:101D80000F804B80624502D10B80A1F80280BDE834
:101D9000F04F002002F068BA2C4000202DE9F041FD
:101DA000354C90460D460246060AA18820462F0A69
:101DB0004089A1F51343413B0CD0A1F5A643103B4C
:101DC00008D0A1F5AA43103B10D0A1F5C853633B3E
:101DD00025D048E002F04EFC304602F03FFCD0B285
:101DE00002F03CFCA08902F045FC36E002F042FC27
:101DF000304602F033FC6089401C80B202F03AFCAD
:101E0000D0B202F02BFCA08902F034FC384602F07C
:101E100025FCA089401C80B202F02CFC20E0A179B6
:101E200019B92188891A491E8AB202F023FC160AC0
:101E3000304602F013FCD0B202F010FC304602F043
:101E40000DFCD0B202F00AFCA08902F013FC384667
:101E500002F004FCE8B202F001FC384602F0FEFB9E
:101E6000E8B202F0FBFB4FF0D840218920F87E1F3A
:101E7000A0F80280BDE8F0812C4000202DE9F04F51
:101E800095B04FF400404FF00109CDE9100903204F
:101E9000CDE9129010A9FE48FEF740FDFD48FE492D
:101EA0004FF02044C0E9004106218160002110224A
:101EB000C160C0E9041281611302C161C0E9091364
:101EC0009302C0E90B1313044163C0E90E130F2002
:101ED000CDE909013C200F9102920B900591082059
:101EE000CDE90310089102AA09A9EA48FFF74EFCC0
:101EF000322004F06DF8D32002F0BCFB02F082F92E
:101F0000E44A5032908002F07DF9908002F07AF934
:101F10004FF6FF7B0BEA0020908002F073F9918866
:101F200049F2413A0843908045F2103645F2105587
:101F300041F66317504548D0D42002F09BFB02F0D5
:101F400061F9908002F05EF9908002F05BF90BEA93
:101F50000020D846908002F055F99188084390807F
:101F6000B04232D04FF45A4002F084FB02F04AF9FA
:101F700090804FF45B4002F07DFB02F043F908EAE9
:101F8000002090804FF45C4002F074FB02F03AF9BC
:101F9000918808439080B0F5004F7DD0A84214D0BE
:101FA000A12002F067FB02F02DF9908002F02AF9DF
:101FB00008EA0020908002F025F991880843A0F5F6
:101FC000AE419080613900D1978090469188B3A04E
:101FD00003F020FDB8F8040050457DD1CF2002F079
:101FE00049FB002002F03AFBC12002F037FB302011
:101FF00002F034FBED2002F03DFB642002F02EFBEA
:10200000032002F02BFB122002F028FB812002F0BB
:1020100025FBE82002F02EFB852002F01FFB10209C
:1020200002F01CFB7A2002F019FBCB2002F022FB0D
:10203000392002F013FB2C2002F010FB002002F0EC
:102040000DFB342002F00AFB022002F007FBF72010
:1020500002F010FB202002F001FBEA2002F00AFB54
:10206000002002F0FBFA002002F0F8FAC02002F093
:1020700001FB1B2002F0F2FAC12002F0FBFA012062
:1020800002F0ECFAC52002F0F5FA302002F0E6FA90
:10209000302002F0E3FA00E0B8E0C72002F0EAFAEC
:1020A000B72002F0DBFA362002F0E4FA482002F012
:1020B000D5FA3A2002F0DEFA552002F0CFFAB1202C
:1020C00002F0D8FA002002F0C9FA1A2002F0C6FA8B
:1020D000B62002F0CFFA00E09AE00A2002F0BEFA41
:1020E000A22002F0BBFAF22002F0C4FA002002F0B3
:1020F000B5FA262002F0BEFA012002F0AFFAE02085
:1021000002F0B8FA0F2002F0A9FA2A2002F0A6FA8B
:10211000282002F0A3FA082002F0A0FA0E2002F014
:102120009DFA082002F09AFA542002F097FAA920AA
:1021300002F094FA432002F091FA0A2002F08EFA9B
:102140000F2002F08BFA002002F088FA002002F043
:1021500085FA002002F082FA002002F07FFAE120E6
:1021600002F088FA002002F079FA152002F076FADF
:10217000172002F073FA072002F070FA112002F023
:102180006DFA062002F06AFA2B2002F067FA562058
:1021900002F064FA3C2002F061FA052002F05EFAD7
:1021A000102002F05BFA0F2002F058FA3F2002F0F4
:1021B00055FA3F2002F052FA0F2002F04FFA2B207E
:1021C00002F058FA002002F049FA002002F046FA24
:1021D000012002F043FA3F2002F040FA2A2002F0E8
:1021E00049FA002002F03AFA002002F037FA002003
:1021F00002F034FAEF2002F031FA112002F03AFA3C
:10220000782003F0E5FE292001F00FBF9580DCE681
:10221000B0427CD1ED2002F02DFA012002F01EFA2E
:10222000FE2002F01BFAEE2002F024FADE2002F07B
:1022300015FA212002F012FAF12002F01BFA012017
:1022400002F00CFADF2002F015FA102002F006FA74
:10225000C42002F00FFA8F2002F000FAC62002F02C
:1022600009FA002002F0FAF9E22002F0F7F9E22080
:1022700002F0F4F9E22002F0F1F9BF2002F0FAF9DD
:10228000AA2002F0EBF9B02002F0F4F90D200DE0E5
:1022900000040240DC3F0020040100A0204C434425
:1022A0002049443A25780D0A0000000002F0D6F9D2
:1022B000002002F0D3F90D2002F0D0F9002002F046
:1022C000CDF9112002F0CAF9002002F0C7F9192057
:1022D00002F0C4F9002002F0C1F9212002F0BEF999
:1022E000002002F0BBF92D2002F0B8F9002002F026
:1022F000B5F93D2002F0B2F9002002F0AFF95D20FF
:1023000002F0ACF9002002F0A9F95D2000E0FCE346
:1023100002F0A4F9002002F0A1F9B12002F0AAF91C
:10232000802002F09BF9002002F098F98B2002F047
:1023300095F9002002F092F9962002F08FF9002022
:1023400002F08CF9B22002F095F9002002F086F933
:10235000002002F083F9022002F080F9002002F050
:102360007DF9032002F07AF9002002F077F9B3201A
:1023700002F080F9002002F071F9002002F06EF9FD
:10238000002002F06BF9002002F068F9002002F052
:1023900065F9002002F062F9002002F05FF90020E8
:1023A00002F05CF9002002F059F9002002F056F921
:1023B000002002F053F9002002F050F9002002F052
:1023C0004DF9002002F04AF9002002F047F9002000
:1023D00002F044F9002002F041F9002002F03EF939
:1023E000002002F03BF9002002F038F9002002F052
:1023F00035F9002002F032F9002002F02FF9002018
:1024000002F02CF9B42002F035F98B2002F026F905
:10241000002002F023F9962002F020F9002002F0BB
:102420001DF9A12002F01AF9002002F017F9B520D9
:1024300002F020F9022002F011F9002002F00EF95A
:10244000032002F00BF9002002F008F9042002F04A
:1024500005F9002002F002F9B62002F00BF9002085
:1024600002F0FCF8002002F0F9F8B72002F002F9BF
:10247000002002F0F3F8002002F0F0F83F2002F014
:10248000EDF8002002F0EAF85E2002F0E7F8002004
:1024900002F0E4F8642002F0E1F8002002F0DEF837
:1024A0008C2002F0DBF8002002F0D8F8AC2002F01B
:1024B000D5F8002002F0D2F8DC2002F0CFF800209E
:1024C00002F0CCF8702002F0C9F8002002F0C6F843
:1024D000902002F0C3F8002002F0C0F8EB2002F0D8
:1024E000BDF8002002F0BAF8DC2002F0B7F80020B6
:1024F00002F0B4F8B82002F0BDF8002002F0AEF807
:10250000002002F0ABF8002002F0A8F8002002F052
:10251000A5F8002002F0A2F8002002F09FF80020A9
:1025200002F09CF8002002F099F8BA2002F0A2F81C
:10253000242002F093F8002002F090F8002002F02E
:102540008DF8002002F08AF8C12002F093F82020D4
:1025500002F084F8002002F081F8542002F07EF8A6
:10256000002002F07BF8FF2002F078F8002002F053
:1025700075F8C22002F07EF80A2002F06FF8002001
:1025800002F06CF8042002F069F8002002F066F80E
:10259000C32002F06FF83C2002F060F8002002F047
:1025A0005DF83A2002F05AF8002002F057F839207E
:1025B00002F054F8002002F051F8372002F04EF8F3
:1025C000002002F04BF83C2002F048F8002002F016
:1025D00045F8362002F042F8002002F03FF83220A1
:1025E00002F03CF8002002F039F82F2002F036F813
:1025F000002002F033F82C2002F030F8002002F026
:102600002DF8292002F02AF8002002F027F82620D1
:1026100002F024F8002002F021F8242002F01EF835
:10262000002002F01BF8242002F018F8002002F02D
:1026300015F8232002F012F8002002F00FF83C20D9
:1026400002F00CF8002002F009F8362002F006F83B
:10265000002002F003F8322002F000F8002001F020
:10266000FDFF2F2001F0FAFF002001F0F7FF2C20E2
:1026700001F0F4FF002001F0F1FF292001F0EEFF4E
:10268000002001F0EBFF262001F0E8FF002001F020
:10269000E5FF242001F0E2FF002001F0DFFF24200D
:1026A00001F0DCFF002001F0D9FF232001F0D6FF6C
:1026B000002001F0D3FFC42001F0DCFF622001F014
:1026C000CDFF002001F0CAFF052001F0C7FF002068
:1026D00001F0C4FF842001F0C1FF002001F0BEFF23
:1026E000F02001F0BBFF002001F0B8FF182001F03E
:1026F000B5FF002001F0B2FFA42001F0AFFF0020E1
:1027000001F0ACFF182001F0A9FF002001F0A6FFA6
:10271000502001F0A3FF002001F0A0FF0C2001F0E9
:102720009DFF002001F09AFF172001F097FF002085
:1027300001F094FF952001F091FF002001F08EFF41
:10274000F32001F08BFF002001F088FFE62001F06C
:1027500085FF002001F082FFC52001F08BFF3220B1
:1027600001F07CFF002001F079FF442001F076FFAA
:10277000002001F073FF652001F070FF002001F0E0
:102780006DFF762001F06AFF002001F067FF8820CE
:1027900001F064FF002001F061FFC62001F06AFF34
:1027A000202001F05BFF002001F058FF172001F00E
:1027B00055FF002001F052FF012001F04FFF0020E3
:1027C00001F04CFFC72001F055FF002001F046FF4B
:1027D000002001F043FF002001F040FF002001F045
:1027E0003DFFC82001F046FF002001F037FF002028
:1027F00001F034FF002001F031FF002001F02EFF36
:10280000C92001F037FF002001F028FF002001F06F
:1028100025FF002001F022FF002001F01FFF002013
:1028200001F01CFF002001F019FF002001F016FF4D
:10283000002001F013FF002001F010FF002001F044
:102840000DFF002001F00AFF002001F007FF00202B
:1028500001F004FF002001F001FF002001F0FEFE66
:10286000002001F0FBFEE02001F004FF162001F043
:10287000F5FE002001F0F2FE1C2001F0EFFE00202A
:1028800001F0ECFE212001F0E9FE002001F0E6FE5F
:10289000362001F0E3FE002001F0E0FE462001F0CA
:1028A000DDFE002001F0DAFE522001F0D7FE00200C
:1028B00001F0D4FE642001F0D1FE002001F0CEFE34
:1028C0007A2001F0CBFE002001F0C8FE8B2001F041
:1028D000C5FE002001F0C2FE992001F0BFFE0020DD
:1028E00001F0BCFEA82001F0B9FE002001F0B6FE08
:1028F000B92001F0B3FE002001F0B0FEC42001F0C9
:10290000ADFE002001F0AAFECA2001F0A7FE0020C3
:1029100001F0A4FED22001F0A1FE002001F09EFEF5
:10292000D92001F09BFE002001F098FEE02001F08C
:1029300095FE002001F092FEF32001F08FFE0020B2
:1029400001F08CFEE12001F095FE162001F086FEDC
:10295000002001F083FE1C2001F080FE002001F029
:102960007DFE222001F07AFE002001F077FE362065
:1029700001F074FE002001F071FE452001F06EFEB2
:10298000002001F06BFE522001F068FE002001F0F3
:1029900065FE642001F062FE002001F05FFE7A20F7
:1029A00001F05CFE002001F059FE8B2001F056FE84
:1029B000002001F053FE992001F050FE002001F0AC
:1029C0004DFEA82001F04AFE002001F047FEB9208C
:1029D00001F044FE002001F041FEC42001F03EFE63
:1029E000002001F03BFECA2001F038FE002001F07B
:1029F00035FED22001F032FE002001F02FFED8205B
:102A000001F02CFE002001F029FEE02001F026FE5E
:102A1000002001F023FEF32001F020FE002001F051
:102A20001DFEE22001F026FE052001F017FE002029
:102A300001F014FE0B2001F011FE002001F00EFE4B
:102A40001B2001F00BFE002001F008FE342001F0F5
:102A500005FE002001F002FE442001F0FFFD0020F1
:102A600001F0FCFD4F2001F0F9FD002001F0F6FD22
:102A7000612001F0F3FD002001F0F0FD792001F06C
:102A8000EDFD002001F0EAFD882001F0E7FD0020C7
:102A900001F0E4FD972001F0E1FD002001F0DEFDF2
:102AA000A62001F0DBFD002001F0D8FDB72001F0E9
:102AB000D5FD002001F0D2FDC22001F0CFFD0020A5
:102AC00001F0CCFDC72001F0C9FD002001F0C6FDDA
:102AD000D12001F0C3FD002001F0C0FDD62001F09F
:102AE000BDFD002001F0BAFDDD2001F0B7FD0020A2
:102AF00001F0B4FDF32001F0B1FD002001F0AEFDC6
:102B0000E32001F0B7FD052000E00CE301F0A6FD95
:102B1000002001F0A3FD0A2001F0A0FD002001F03B
:102B20009DFD1C2001F09AFD002001F097FD33204F
:102B300001F094FD002001F091FD442001F08EFD94
:102B4000002001F08BFD502001F088FD002001F0F5
:102B500085FD622001F082FD002001F07FFD7820DC
:102B600001F07CFD002001F079FD882001F076FD68
:102B7000002001F073FD972001F070FD002001F0AE
:102B80006DFDA62001F06AFD002001F067FDB72071
:102B900001F064FD002001F061FDC22001F05EFD46
:102BA000002001F05BFDC72001F058FD002001F07E
:102BB00055FDD12001F052FD002001F04FFDD52040
:102BC00001F04CFD002001F049FDDD2001F046FD43
:102BD000002001F043FDF32001F040FD002001F052
:102BE0003DFDE42001F046FD012001F037FD00200D
:102BF00001F034FD012001F031FD002001F02EFD37
:102C0000022001F02BFD002001F028FD2A2001F018
:102C100025FD002001F022FD3C2001F01FFD0020D9
:102C200001F01CFD4B2001F019FD002001F016FD04
:102C30005D2001F013FD002001F010FD742001F073
:102C40000DFD002001F00AFD842001F007FD0020A9
:102C500001F004FD932001F001FD002001F0FEFCD5
:102C6000A22001F0FBFC002001F0F8FCB32001F0F1
:102C7000F5FC002001F0F2FCBE2001F0EFFC00208A
:102C800001F0ECFCC42001F0E9FC002001F0E6FCBE
:102C9000CD2001F0E3FC002001F0E0FCD32001F0A6
:102CA000DDFC002001F0DAFCDD2001F0D7FC002083
:102CB00001F0D4FCF32001F0D1FC002001F0CEFCA7
:102CC000E52001F0D7FC002001F0C8FC002001F055
:102CD000C5FC002001F0C2FC002001F0BFFC022076
:102CE00001F0BCFC002001F0B9FC292001F0B6FC89
:102CF000002001F0B3FC3C2001F0B0FC002001F00A
:102D0000ADFC4B2001F0AAFC002001F0A7FC5D20E7
:102D100001F0A4FC002001F0A1FC742001F09EFC55
:102D2000002001F09BFC842001F098FC002001F0C1
:102D300095FC932001F092FC002001F08FFCA22072
:102D400001F08CFC002001F089FCB32001F086FC2E
:102D5000002001F083FCBE2001F080FC002001F087
:102D60007DFCC42001F07AFC002001F077FCCD202E
:102D700001F074FC002001F071FCD32001F06EFC26
:102D8000002001F06BFCDC2001F068FC002001F069
:102D900065FCF32001F062FC002001F05FFCE620FE
:102DA00001F068FC112001F059FC002001F056FCF4
:102DB000342001F053FC002001F050FC562001F0BB
:102DC0004DFC002001F04AFC762001F047FC002079
:102DD00001F044FC772001F041FC002001F03EFCB2
:102DE000662001F03BFC002001F038FC882001F057
:102DF00035FC002001F032FC992001F02FFC00206E
:102E000001F02CFCBB2001F029FC002001F026FC85
:102E1000992001F023FC002001F020FC662001F045
:102E20001DFC002001F01AFC552001F017FC0020C9
:102E300001F014FC552001F011FC002001F00EFC03
:102E4000452001F00BFC002001F008FC432001F0BC
:102E500005FC002001F002FC442001F0FFFB0020F3
:102E600001F0FCFBE72001F005FC322001F0F6FB4D
:102E7000002001F0F3FB552001F0F0FB002001F0F1
:102E8000EDFB762001F0EAFB002001F0E7FB662075
:102E900001F0E4FB002001F0E1FB672001F0DEFB24
:102EA000002001F0DBFB672001F0D8FB002001F0DF
:102EB000D5FB872001F0D2FB002001F0CFFB992049
:102EC00001F0CCFB002001F0C9FBBB2001F0C6FBE8
:102ED000002001F0C3FB992001F0C0FB002001F0AD
:102EE000BDFB772001F0BAFB002001F0B7FB4420C6
:102EF00001F0B4FB002001F0B1FB562001F0AEFB65
:102F0000002001F0ABFB232001F0A8FB002001F022
:102F1000A5FB332001F0A2FB002001F09FFB452020
:102F200001F09CFB002001F099FBE82001F0A2FBDE
:102F3000002001F093FB002001F090FB992001F0AC
:102F40008DFB002001F08AFB872001F087FB002029
:102F500001F084FB882001F081FB002001F07EFB62
:102F6000772001F07BFB002001F078FB662001F068
:102F700075FB002001F072FB882001F06FFB002040
:102F800001F06CFBAA2001F069FB002001F066FB58
:102F9000BB2001F063FB002001F060FB992001F0F1
:102FA0005DFB002001F05AFB662001F057FB00207A
:102FB00001F054FB552001F051FB002001F04EFBC5
:102FC000552001F04BFB002001F048FB442001F0AC
:102FD00045FB002001F042FB442001F03FFB0020B4
:102FE00001F03CFB552001F039FB002001F036FBDD
:102FF000E92001F03FFBAA2001F030FB002001F0A6
:103000002DFB002001F02AFB002001F027FB00200F
:1030100001F030FBAA2001F021FBCF2001F02AFBB8
:10302000002001F01BFB002001F018FB002001F044
:1030300015FB002001F012FB002001F00FFB002027
:1030400001F00CFB002001F009FB002001F006FB61
:10305000002001F003FB002001F000FB002001F044
:10306000FDFA002001F0FAFA002001F0F7FA002042
:1030700001F0F4FA002001F0F1FA002001F0EEFA7C
:10308000002001F0EBFAF02001F0F4FA002001F04A
:10309000E5FA502001F0E2FA002001F0DFFA00200A
:1030A00001F0DCFA002001F0D9FAF32001F0E2FA95
:1030B000002001F0D3FAF92001F0DCFA062001F03B
:1030C000CDFA102001F0CAFA292001F0C7FA002039
:1030D00001F0C4FA3A2001F0CDFA552001F0BEFA11
:1030E000112001F0C7FA642002F072FF292001F0DC
:1030F000C1FA352001F0BEFA002001F0AFFA5120EC
:1031000001F0B8FAFF2001F0A9FA532001F0B2FA59
:103110002C2001F0A3FA552001F0ACFA822001F036
:103120009DFA2C20FDE3A8427ED14FF47043552137
:10313000184601F0B5FAAA214FF2010001F0B0FAE9
:1031400052214FF2020001F0ABFA08214FF20300C6
:1031500001F0A6FA01214FF2040001F0A1FA0D21BD
:103160004FF4304001F09CFA0D214BF2010001F0C8
:1031700097FA0D214BF2020001F092FA34214FF43C
:10318000364001F08DFA34214BF2016001F088FAEB
:1031900034214BF2026001F083FA0D214FF43140EB
:1031A00001F07EFA0D214BF2011001F079FA0D21A8
:1031B0004BF2021001F074FA34214FF4374001F061
:1031C0006FFA34214BF2017001F06AFA34214BF2AC
:1031D000027001F065FA00214FF4324001F060FA0C
:1031E00000214BF2012001F05BFA00214BF202209A
:1031F00001F056FA24214FF4384001F051FA24210D
:103200004BF6010001F04CFA24214BF6020001F0CC
:1032100047FA01214FF43F4001F042FA0F214FF4E9
:10322000334001F03DFA00E0FEE30F214BF20130A4
:1032300001F036FA0F214BF2023001F031FA34215D
:103240004FF4394001F02CFA34214BF6011001F013
:1032500027FA34214BF6021001F022FA08214FF42C
:10326000354001F01DFA08214BF2015001F018FA27
:1032700008214BF2025001F013FA03214FF44240AF
:1032800001F00EFA24214FF43A4001F009FA24210A
:103290004BF6012001F004FA24214BF6022001F044
:1032A000FFF900214FF43C4001F0FAF978214BF688
:1032B000014001F0F5F900214BF6024001F0F0F970
:1032C00000214FF43D4001F0EBF978214BF601501D
:1032D00001F0E6F900214BF6025001F0E1F900217E
:1032E0004FF43E4001F0DCF964214BF6016001F03F
:1032F000D7F900214FF4514001F0D2F933214DF2BA
:10330000011001F0CDF900214DF2021001F0C8F9D1
:1033100034214DF2031001F0C3F900214DF20410E5
:1033200001F0BEF93A214DF2051001F0B9F9002182
:103330004DF2061001F0B4F94A214DF2071001F0E8
:10334000AFF900214DF2081001F0AAF95C214DF20D
:10335000091001F0A5F900214DF20A1001F0A0F9C1
:1033600081214DF20B1001F09BF900214DF20C1060
:1033700001F096F9A6214DF20D1001F091F900210E
:103380004DF20E1001F08CF9E5214DF20F1001F015
:1033900087F901214DF2101001F082F913214DF24D
:1033A000111001F07DF901214DF2121001F078F9B0
:1033B00054214DF2131001F073F901214DF2141054
:1033C00001F06EF982214DF2151001F069F9012129
:1033D0004DF2161001F064F9CA214DF2171001F0F8
:1033E0005FF902214DF2181001F05AF900214DF257
:1033F000191001F055F902214DF21A1001F050F99F
:1034000001214DF21B1001F04BF902214DF21C106D
:1034100001F046F934214DF21D1001F041F902216D
:103420004DF21E1001F03CF967214DF21F1001F022
:1034300037F902214DF2201001F032F984214DF2CA
:10344000211001F02DF902214DF2221001F028F98E
:10345000A4214DF2231001F023F902214DF2241092
:1034600001F01EF9B7214DF2251001F019F90221E2
:103470004DF2261001F014F9CF214DF2271001F082
:103480000FF902214DF2281001F00AF9DE214DF268
:10349000291001F005F902214DF22A1001F000F97E
:1034A000F2214DF22B1001F0FBF802214DF22C100D
:1034B00001F0F6F8FE214DF22D1001F0F1F8032194
:1034C0004DF22E1001F0ECF810214DF22F1001F00A
:1034D000E7F803214DF2301001F0E2F833214DF20C
:1034E000311001F0DDF803214DF2321001F0D8F86F
:1034F0006D214DF2331001F0D3F800214FF452400A
:1035000001F0CEF833214DF2012001F0C9F800217D
:103510004DF2022001F0C4F834214DF2032001F0F5
:10352000BFF800214DF2042001F0BAF83A214DF223
:10353000052001F0B5F800214DF2062001F0B0F8A9
:103540004A214DF2072001F0ABF800214DF208208E
:1035500001F0A6F85C214DF2092001F0A1F800214C
:103560004DF20A2001F09CF881214DF20B2001F070
:1035700097F800214DF20C2001F092F8A6214DF2AF
:103580000D2001F08DF800214DF20E2001F088F899
:10359000E5214DF20F2001F083F801214DF21020BA
:1035A00001F07EF813214DF2112001F079F801218C
:1035B0004DF2122001F074F854214DF2132001F065
:1035C0006FF801214DF2142001F06AF882214DF2CA
:1035D000152001F065F801214DF2162001F060F888
:1035E000CA214DF2172001F05BF802214DF218209C
:1035F00001F056F800214DF2192001F051F8022196
:103600004DF21A2001F04CF801214DF21B2001F07F
:1036100047F802214DF21C2001F042F834214DF20E
:103620001D2001F03DF802214DF21E2001F038F876
:1036300067214DF21F2001F033F802214DF22020C6
:1036400001F02EF884214DF2212001F029F8022109
:103650004DF2222001F024F8A4214DF2232001F0A4
:103660001FF802214DF2242001F01AF8B7214DF283
:10367000252001F015F802214DF2262001F010F866
:10368000CF214DF2272001F00BF802214DF2282026
:1036900001F006F8DE214DF2292001F001F80221A7
:1036A0004DF22A2000F0FCFFF2214DF22B2000F019
:1036B000F7FF02214DF22C2000F0F2FFFE214DF227
:1036C0002D2000F0EDFF03214DF22E2000F0E8FF49
:1036D00010214DF22F2000F0E3FF03214DF23020A6
:1036E00000F0DEFF33214DF2312000F0D9FF03213D
:1036F0004DF2322000F0D4FF6D214DF2332000F066
:10370000CFFF00214FF4534000F0CAFF33214DF2A8
:10371000013000F0C5FF00214DF2023000F0C0FF83
:1037200034214DF2033000F0BBFF00214DF2043094
:1037300000F0B6FF3A214DF2053000F0B1FF002154
:103740004DF2063000F0ACFF4A214DF2073000F098
:10375000A7FF00214DF2083000F0A2FF5C214DF2DE
:10376000093000F09DFF00214DF20A3000F098FF73
:1037700081214DF20B3000F093FF00214DF20C300F
:1037800000F08EFFA6214DF20D3000F089FF0021E0
:103790004DF20E3000F084FFE5214DF20F3000F0C5
:1037A0007FFF01214DF2103000F07AFF13214DF21E
:1037B000113000F075FF01214DF2123000F070FF62
:1037C00054214DF2133000F06BFF01214DF2143003
:1037D00000F066FF82214DF2153000F061FF0121FB
:1037E0004DF2163000F05CFFCA214DF2173000F0A8
:1037F00057FF02214DF2183000F052FF00214DF228
:10380000193000F04DFF02214DF21A3000F048FF50
:1038100001214DF21B3000F043FF02214DF21C301C
:1038200000F03EFF34214DF21D3000F039FF02213F
:103830004DF21E3000F034FF67214DF21F3000F0D2
:103840002FFF02214DF2203000F02AFF84214DF29B
:10385000213000F025FF02214DF2223000F020FF40
:10386000A4214DF2233000F01BFF02214DF2243041
:1038700000F016FFB7214DF2253000F011FF0221B4
:103880004DF2263000F00CFFCF214DF2273000F032
:1038900007FF02214DF2283000F002FFDE214DF239
:1038A000293000F0FDFE02214DF22A3000F0F8FE32
:1038B000F2214DF22B3000F0F3FE02214DF22C30BC
:1038C00000F0EEFEFE214DF22D3000F0E9FE032166
:1038D0004DF22E3000F0E4FE10214DF22F3000F0BA
:1038E000DFFE03214DF2303000F0DAFE33214DF2DD
:1038F000313000F0D5FE03214DF2323000F0D0FE21
:103900006D214DF2333000F0CBFE00214FF45440D6
:1039100000F0C6FE33214DF2014000F0C1FE00214F
:1039200000E082E34DF2024000F0BAFE34214DF295
:10393000034000F0B5FE00214DF2044000F0B0FE5F
:103940003A214DF2054000F0ABFE00214DF2064059
:1039500000F0A6FE4A214DF2074000F0A1FE002132
:103960004DF2084000F09CFE5C214DF2094000F051
:1039700097FE00214DF20A4000F092FE81214DF2A7
:103980000B4000F08DFE00214DF20C4000F088FE4F
:10399000A6214DF20D4000F083FE00214DF20E40B5
:1039A00000F07EFEE5214DF20F4000F079FE01218E
:1039B0004DF2104000F074FE13214DF2114000F062
:1039C0006FFE01214DF2124000F06AFE54214DF2CB
:1039D000134000F065FE01214DF2144000F060FE3E
:1039E00082214DF2154000F05BFE01214DF21640A0
:1039F00000F056FECA214DF2174000F051FE0221A0
:103A00004DF2184000F04CFE00214DF2194000F03C
:103A100047FE02214DF21A4000F042FE01214DF214
:103A20001B4000F03DFE00E002E302214DF21C408D
:103A300000F036FE34214DF21D4000F031FE02212F
:103A40004DF21E4000F02CFE67214DF21F4000F0A9
:103A500027FE02214DF2204000F022FE84214DF28B
:103A6000214000F01DFE02214DF2224000F018FE20
:103A7000A4214DF2234000F013FE02214DF2244018
:103A800000F00EFEB7214DF2254000F009FE0221A4
:103A90004DF2264000F004FECF214DF2274000F009
:103AA000FFFD02214DF2284000F0FAFDDE214DF22B
:103AB000294000F0F5FD02214DF22A4000F0F0FD12
:103AC000F2214DF22B4000F0EBFD02214DF22C4093
:103AD00000F0E6FDFE214DF22D4000F0E1FD032156
:103AE0004DF22E4000F0DCFD10214DF22F4000F091
:103AF000D7FD03214DF2304000F0D2FD33214DF2CD
:103B0000314000F0CDFD03214DF2324000F0C8FD00
:103B10006D214DF2334000F0C3FD00214FF45540BC
:103B200000F0BEFD33214DF2015000F0B9FD00213F
:103B30004DF2025000F0B4FD34214DF2035000F07C
:103B4000AFFD00214DF2045000F0AAFD3A214DF2E4
:103B5000055000F0A5FD00214DF2065000F0A0FD3B
:103B60004A214DF2075000F09BFD00214DF2085014
:103B700000F096FD5C214DF2095000F091FD00210E
:103B80004DF20A5000F08CFD81214DF20B5000F0F7
:103B900087FD00214DF20C5000F082FDA6214DF270
:103BA0000D5000F07DFD00214DF20E5000F078FD2B
:103BB000E5214DF20F5000F073FD01214DF2105040
:103BC00000F06EFD13214DF2115000F069FD01214E
:103BD0004DF2125000F064FD54214DF2135000F0EC
:103BE0005FFD01214DF2145000F05AFD82214DF28B
:103BF000155000F055FD01214DF2165000F050FD1A
:103C0000CA214DF2175000F04BFD02214DF2185021
:103C100000F046FD00214DF2195000F041FD022157
:103C20004DF21A5000F03CFD01214DF21B5000F006
:103C300037FD02214DF21C5000F032FD34214DF2CF
:103C40001D5000F02DFD02214DF21E5000F028FD08
:103C500067214DF21F5000F023FD02214DF220504C
:103C600000F01EFD84214DF2215000F019FD0221CB
:103C70004DF2225000F014FDA4214DF2235000F02B
:103C80000FFD02214DF2245000F00AFDB7214DF244
:103C9000255000F005FD02214DF2265000F000FDF8
:103CA000CF214DF2275000F0FBFC02214DF22850AD
:103CB00000F0F6FCDE214DF2295000F0F1FC02216B
:103CC0004DF22A5000F0ECFCF2214DF22B5000F0A6
:103CD000E7FC02214DF22C5000F0E2FCFE214DF2F7
:103CE0002D5000F0DDFC03214DF22E5000F0D8FCE9
:103CF00010214DF22F5000F0D3FC03214DF2305033
:103D000000F0CEFC33214DF2315000F0C9FC03210C
:103D10004DF2325000F0C4FC6D214DF2335000F0F2
:103D2000BFFC00214FF4564000F0BAFC33214DF2A5
:103D3000016000F0B5FC00214DF2026000F0B0FC23
:103D400034214DF2036000F0ABFC00214DF2046021
:103D500000F0A6FC3A214DF2056000F0A1FC002124
:103D60004DF2066000F09CFC4A214DF2076000F025
:103D700097FC00214DF2086000F092FC5C214DF2AE
:103D8000096000F08DFC00214DF20A6000F088FC13
:103D900081214DF20B6000F083FC00214DF20C609C
:103DA00000F07EFCA6214DF20D6000F079FC0021B0
:103DB0004DF20E6000F074FCE5214DF20F6000F052
:103DC0006FFC01214DF2106000F06AFC13214DF2EE
:103DD000116000F065FC01214DF2126000F060FC02
:103DE00054214DF2136000F05BFC01214DF2146090
:103DF00000F056FC82214DF2156000F051FC0121CB
:103E00004DF2166000F04CFCCA214DF2176000F034
:103E100047FC02214DF2186000F042FC00214DF2F7
:103E2000196000F03DFC02214DF21A6000F038FCF0
:103E300001214DF21B6000F033FC02214DF21C60A9
:103E400000F02EFC34214DF21D6000F029FC02210F
:103E50004DF21E6000F024FC67214DF21F6000F05F
:103E60001FFC02214DF2206000F01AFC84214DF26B
:103E7000216000F015FC02214DF2226000F010FCE0
:103E8000A4214DF2236000F00BFC02214DF22460CE
:103E900000F006FCB7214DF2256000F001FC022184
:103EA0004DF2266000F0FCFBCF214DF2276000F0C0
:103EB000F7FB02214DF2286000F0F2FBDE214DF20B
:103EC000296000F0EDFB02214DF22A6000F0E8FBD2
:103ED000F2214DF22B6000F0E3FB02214DF22C6049
:103EE00000F0DEFBFE214DF22D6000F0D9FB032136
:103EF0004DF22E6000F0D4FB10214DF22F6000F047
:103F0000CFFB03214DF2306000F0CAFB33214DF2AC
:103F1000316000F0C5FB03214DF2326000F0C0FBC0
:103F20006D214DF2336000F0BBFB5521184600F0C7
:103F3000B7FBAA214FF2010000F0B2FB52214FF271
:103F4000020000F0ADFB08214FF2030000F0A8FBD7
:103F500000214FF2040000F0A3FBCC214FF43140CC
:103F600000F09EFB00214BF2011000F099FB0521AF
:103F70004FF4364000F094FB70214FF4374000F0CE
:103F80008FFB70214BF2017000F08AFB01214FF48E
:103F9000384000F085FB03214BF6010000F080FB68
:103FA00003214BF6020000F07BFB03214BF60300DC
:103FB00000F076FB02214FF43C4000F071FB002141
:103FC0004BF6014000F06CFB00214BF6024000F084
:103FD00067FBD0214FF4494000F062FB02214CF610
:103FE000011000F05DFB50214CF6021000F058FB70
:103FF00050214CF6031000F053FB50214CF60410F6
:1040000000F04EFB00214FF4545000F049FB5521C5
:104010004FF4685000F044FB4FF4885000F02AFB46
:10402000782001F0E3FF4FF4245000F023FBB8E0C8
:10403000B842FCD1E22000F01DFB1D2000F00EFB79
:10404000022000F00BFB042000F008FB642001F0CC
:10405000CDFFE02000F00EFB012000F0FFFA0A2067
:1040600001F0B6FFE02000F005FB032000F0F6FAB7
:104070000C2001F0ADFF012000F0FCFA0A2001F055
:10408000A7FFE62000F0F6FA2F2000F0E7FAFF2065
:1040900000F0E4FAFF2000F0E1FAB02000F0EAFAC4
:1040A000202000F0DBFA002000F0D8FA002000F019
:1040B000D5FAEF2000F0D2FA012000F0CFFA40F25A
:1040C0003F1000F0CBFA002000F0C8FAB42000F056
:1040D000D1FA012000F0C2FA40F2EF1000F0BEFA6F
:1040E000002000F0BBFA2E2000F0B8FA002000F00B
:1040F000B5FA002000F0B2FA002000F0AFFA00207C
:1041000000F0ACFAB62000F0B5FA012000F0A6FAF3
:104110004FF4B67000F0A2FA002000F09FFA1720CA
:1041200000F09CFA152000F099FA002000F096FAB1
:10413000002000F093FAF02000F09CFA032000F039
:104140008DFA292000F096FAD02000F093FA002092
:1041500000F084FABE2000F08DFA052000F07EFA0F
:10416000FE2000F07BFA012000F078FA002000F039
:1041700075FA002000F072FA002000F06FFAB82003
:1041800000F078FA032000F069FA012000F066FAE6
:10419000BA2000F06FFA012000F060FA642000F00D
:1041A0003BF8B8F80400504505D0B04203D0A8420F
:1041B00001D0B84217D1D4F81C0120F00F00C4F888
:1041C0001C01D4F81C0120F47060C4F81C01D4F860
:1041D0001C0140F00300C4F81C01D4F81C0140F499
:1041E0000070C4F81C010020FDF76CFD0449C1F803
:1041F000BC925846FDF74CFD15B0BDE8F08F0000AD
:104200000080404208B54FF0D840B0F88000ADF8CB
:104210000000BDF8000008BD10B50246BE2000F049
:1042200029FA052000F01AFA1046FCF7DCF89FED99
:104230000C1B53EC112BFCF764F8FCF7E1F880B28F
:1042400000F00CFA012000F009FAFF2000F006FA55
:10425000002000F003FABDE81040002000F0FEB995
:104260006666666666660440F0B56C4C00232146BF
:10427000A279898841F66316012A01D01AB11BE0A0
:10428000B14202D118E0B14216D1082814D2DFE8B9
:1042900000F00406080A0C0E101206200CE007209D
:1042A0000AE0042008E0052006E0012004E00020E8
:1042B00002E0032000E00220A1F5134745F210328E
:1042C00045F21055413F05D0914203D0A94201D09B
:1042D000B14277D1082812D2DFE800F011040608B5
:1042E0000A0C0E1080230AE0402308E0C02306E0F9
:1042F000202304E0602302E0A02300E0E023A942A1
:1043000002D14FF4585000E03620914205D0A94226
:1043100003D0B14201D043F00803194600F0C0F9C0
:10432000A188B1420AD098062088628802D59042BE
:1043300002D303E0904201D9228060806089A942C3
:1043400041D100F097F9002000F088F96089401C05
:1043500080B200F08FF9002000F080F96089801CA5
:1043600080B200F087F92088401EC0F30F2000F0D3
:1043700075F96089C01C80B200F07CF92078401E7D
:10438000C0B200F06BF9A08900F074F9002000F0D1
:1043900065F9A089401C80B200F06CF9002000F0A3
:1043A0005DF9A089801C80B200F064F96088401E2D
:1043B000C0F30F2000F052F9A089C01C80B200F0B9
:1043C00059F922E028E000F055F9002000F046F904
:1043D000002000F043F92088401EC0F30F2000F0B9
:1043E0003DF92078401EC0B200F038F9A08900F0F5
:1043F00041F9002000F032F9002000F02FF9608828
:10440000401EC0F30F2000F029F9A078BDE8F0406D
:10441000401EC0B200F022B9F0BD00002C400020C8
:10442000F0B53F4A0D460446060A918810462F0A09
:104430004089A1F51343413B28D0A1F5A643103B89
:1044400024D0A1F5C853633B2FD0A1F5AA43103B5C
:1044500064D100F00FF9304600F000F95089401C9B
:1044600080B200F007F9E0B200F0F8F8908900F0AF
:1044700001F9384600F0F2F89089401C80B200F053
:10448000F9F8E8B2BDE8F04000F0E8B800F0F2F862
:10449000304600F0E3F8E0B200F0E0F8908900F078
:1044A000E9F8384600F0DAF8EBE7917929B300F043
:1044B000E1F8304600F0D2F8E0B200F0CFF8108812
:1044C000401EC0F30F2000F0C9F81078401EC0B2A3
:1044D00000F0C4F8908900F0CDF8384600F0BEF83E
:1044E000E8B200F0BBF85088401EC0F30F2000F087
:1044F000B5F89078401EC0B2C4E71188091B491E68
:104500008CB200F0B7F8002000F0A8F8002000F00E
:10451000A5F8200A00F0A2F8E0B2D9E7F0BD00004B
:104520002C4000202DE9FF4F1D460C468A465807B7
:1045300000D0012000EBD500690810FB01F0203A03
:1045400000F0FF09D0B20026DFF8A4B002904BE0E3
:104550000C2D11D0102D14D0182D17D0202D45D191
:104560002449029801EBC0104FF00008875D38061F
:1045700013D52148026814E00298204900EB40005E
:1045800008E01F49029801EB0010EDE702981D4971
:1045900000EBC00001EB8000E6E70D9828B9164853
:1045A000426821460098FDF7F9FB7806070E641C67
:1045B000BBF80200A4B2A04218D9A4EB0A00A8429A
:1045C00009D100985446401C80B20090BBF80010FE
:1045D00081420BD906E008F1010000F0FF08B8F1B4
:1045E000080FC4D3761CF6B24E45B1D3BDE8FF8F99
:1045F0002C400020349F0008B00000207487000881
:10460000E88B0008D89100082DE9F84F044600F027
:10461000FF0910190D46DDE90AB61FFA80F858198E
:1046200087B24FF0000A12E0444503D305EB0B00BC
:104630004C4685B2BD420FD25B4629462046CDF896
:1046400000A0FFF76FFF04EB5B0084B2761C3278AA
:10465000A2F120005E28E7D9BDE8F88F01B5BDF8CA
:104660000000ADF80000BDF800004FF0D841A1F8FF
:10467000800008BD01B5BDF80000ADF80000BDF830
:1046800000004FF0D841A1F87E0008BD03484FF06C
:10469000D8410089A1F87E00704700002C4000201E
:1046A0004FF0D84222F87E0F5180704710B5044970
:1046B0000448FBF7B5FF0249491E087010BD000011
:1046C000250000209086000800B585B01422064918
:1046D0006846FBF704FE0021684602F063FC0349CC
:1046E000086005B000BD0000AC8600082C0000206A
:1046F00000B5174887B04FF020410160154941606F
:104700000421816000211022C160C0E9041281618E
:10471000C161016241628162C1620163416381637F
:10472000416408200091CDE90110CDE90312112068
:10473000CDE90501002269460548FDF727F8002864
:1047400003D0602104A001F064F907B000BD0000AF
:10475000BC000020040100A02E2E2F5372632F6690
:10476000736D632E6300000070B52B4886B0002582
:10477000016841F020010160016801F0200105910C
:10478000016841F080010160016801F0800105913C
:10479000016841F040010160016801F040010591AC
:1047A000016841F010010160016801F010010591FC
:1047B000016841F008010160016801F008010591FC
:1047C000016841F004010160016801F004010591F4
:1047D000016841F001010160016801F001010591EA
:1047E000016841F00201016000680C4E00F0020017
:1047F0004FF4C0640590002221463046FCF76AF968
:104800000120CDE900400220CDE902506946304642
:10481000FCF784F806B070BD303802400014024046
:10482000064805490160002141608160C160016165
:104830004161816170470000002C01400C010020A3
:104840000D4810B50B4901604FF4E1314160002182
:1048500081600C22C160C0E904128161C161FDF771
:1048600057F9002805D0BDE810404C2103A001F005
:10487000D0B810BD00100140900100202E2E2F5303
:1048800072632F75736172742E630000FEE7FCF78C
:104890001FBB0907090E002806DA00F00F0000F11F
:1048A000E02080F8141D704700F1E02080F800142B
:1048B00070470A6842624A688262D1E902231A4359
:1048C000D1E904310B43C16A1A4321F0F7011143C6
:1048D000C16200207047006800F00300704708B50F
:1048E000084414300090006808BD70B50DF1100C3C
:1048F00011439CE870002343194329434268314324
:1049000047F6FF639A430A434260002070BD0321CB
:10491000016000207047D0F8800070470A6882600C
:10492000D1E901231A43D1E903310B43C1681A438A
:104930006FF30B011143C1600020704710B586B0C2
:1049400004463720CDE9001040200290002003905B
:104950004FF48060049069462046FFF7DFFF41F284
:1049600088323721204600F0B7F906B010BD0000AC
:1049700010B504460A4886B001432920CDE900104D
:1049800040200290002003904FF48060049069461C
:104990002046FFF7C3FF204600F054FA06B010BDD2
:1049A0000000108010B586B004461020CDE900103C
:1049B00040200290002003904FF4806004906946EC
:1049C0002046FFF7ABFF41F288321021204600F06D
:1049D00083F906B010BD10B586B004460620CDE9B7
:1049E000001040200290002003904FF4806004905B
:1049F00069462046FFF792FF41F2883206212046A1
:104A000000F06AF906B010BD30B585B00024054647
:104A1000009401944FF480600294CDE9034069460C
:104A20002846FFF77BFF0B484FF4FA510068B0FBB4
:104A3000F1F041F288314843401E03D24FF000406C
:104A400005B030BD696B0906F6D540F2FF50A8638A
:104A50002046F5E73800002070B585B004464FF4D5
:104A6000D570009008204026CDE901060025C00140
:104A7000CDE9035069462046FFF750FF0F484FF439
:104A8000FA510068B0FBF1F041F288314843401E12
:104A900002D24FF000450DE0616B11F0450FF6D0EA
:104AA000606B400702D5A663042503E0606B4006F7
:104AB00000D5A66305B0284670BD00003800002070
:104AC00010B586B004461220CDE9001040200290B7
:104AD000002003904FF48060049069462046FFF761
:104AE0001DFF41F288321221204600F0F5F806B091
:104AF00010BD10B586B004461120CDE9001040204D
:104B00000290002003904FF4806004906946204694
:104B1000FFF704FF41F288321121204600F0DCF853
:104B200006B010BD10B586B004460720CDE90020C0
:104B300040200290002003904FF48060049069466A
:104B40002046FFF7EBFE41F288320721204600F0B5
:104B5000C3F806B010BD10B586B00446002102208F
:104B6000CDE90010C020CDE902014FF4806004902F
:104B700069462046FFF7D2FE204600F03BF906B01A
:104B800010BD10B586B004460920CDE90010C02044
:104B90000290002003904FF4806004906946204604
:104BA000FFF7BCFE204600F025F906B010BD10B599
:104BB00086B0044600213320CDE900104020CDE925
:104BC00002010001049069462046FFF7A7FE41F26A
:104BD00088323321204600F07FF806B010BD10B5B2
:104BE00086B004460D20CDE9001040200290002040
:104BF00003904FF48060049069462046FFF78EFED4
:104C000041F288320D21204600F066F806B010BD52
:104C100030B585B00C46054600210320CDE90010D3
:104C20004020CDE902010001049069462846FFF7C3
:104C300075FE22460321284600F024F905B030BD58
:104C400010B586B0044600210C20CDE900104020AC
:104C5000CDE902010001049069462046FFF75EFE9F
:104C6000034A0C21204600F037F806B010BD0000C2
:104C700000E1F50510B586B004461920CDE9001015
:104C800040200290002003904FF480600490694619
:104C90002046FFF743FE41F288321921204600F0FA
:104CA0001BF806B010BD10B586B004461820CDE93B
:104CB000001040200290002003904FF48060049088
:104CC00069462046FFF72AFE41F288321821204625
:104CD00000F002F806B010BD444B10B51B684FF44D
:104CE000FA54B3FBF4F353435B1E02D24FF000407F
:104CF00010BD426B12F0450FF6D0426B520703D540
:104D000004218163084610BD426BD20702D0012105
:104D1000816303E00269D2B28A4201D0012010BD52
:104D200040F2FF5181630021FFF7D9FD304908426D
:104D300001D1002010BD002802DA4FF0007010BD34
:104D4000410001D5402010BD810001D5802010BD5B
:104D5000C10002D54FF4807010BD010102D54FF49F
:104D6000007010BD410102D54FF4806010BDC1013B
:104D700002D54FF4006010BD010202D54FF48050FF
:104D800010BD410202D54FF4005010BD810202D582
:104D90004FF4804010BDC10202D54FF4004010BD59
:104DA000410302D54FF4003010BD810302D54FF40A
:104DB000802010BDC10302D54FF4002010BD0104B6
:104DC00002D54FF4801010BD410402D54FF40010FD
:104DD00010BD810402D54FF4800010BD000702D53C
:104DE0004FF4000010BD4FF4803010BD380000209B
:104DF00008E0FFFD12494FF4FA520968B1FBF2F1E5
:104E000041F288325143491E02D24FF000407047B0
:104E1000426B12F0450FF6D0416B490703D50421D0
:104E2000816308467047416BC90703D00121816344
:104E30000846704740F2FF51816300207047000030
:104E4000380000200E494FF4FA520968B1FBF2F124
:104E500041F288325143491E02D24FF00040704760
:104E6000426B12F0450FF6D0416B490703D5042180
:104E700081630846704740F2FF518163002070470C
:104E8000380000201F4B10B51B684FF4FA54B3FBD9
:104E9000F4F341F2883463435B1E02D24FF00040CA
:104EA00010BD446B14F0450FF6D0436B5B0703D580
:104EB00004218163084610BD436BDB0702D001214A
:104EC000816303E00369DBB28B4201D0012010BD96
:104ED00040F2FF5181630021FFF701FD10F4604FA4
:104EE00004D0410406D54FF4005010BD000C1080D2
:104EF000002010BD000402D54FF4805010BD4FF4C7
:104F0000803010BD3800002010B5064C0120207004
:104F1000FBF724FB18B9207820F0010020702078DE
:104F200010BD00001C00002010B5846BE06B406DCC
:104F3000012803D0206C406D01281CD1216840F26B
:104F4000FF5088632068C16B21F49D71C163A06B21
:104F500040F08040A0632046FCF792FA062801D07A
:104F6000052805D12068FFF76BFEA16B0843A063FD
:104F7000012084F834002046FCF782F910BD10B5FA
:104F8000846B206B822809D12068FFF759FE28B175
:104F9000A16B0143A1632046FCF772F92068C16A46
:104FA00021F00801C162216840F2FF5088630120AE
:104FB00084F834002046FCF76BFB10BD806B006862
:104FC000C16B41F48071C16370472DE9F04F89B026
:104FD0000E460446FBF784FD0025834600950195A7
:104FE0002F4608212068FFF7DDFC002834D1B4F8F3
:104FF000500001042068FFF7A1FC00282CD1401EBE
:105000004FF00808CDE9020830204FF00209CDE941
:1050100004090120CDE9067002A92068FFF749FCC8
:105020002068FFF7C4FD002816D1EA4640F22A475F
:105030002068416B394212D1416B890204D5FFF7D8
:105040006AFC4AF825006D1CFBF74AFDA0EB0B003B
:10505000401CEDD14FF0004009B0BDE8F08F416B2E
:10506000090703D5C0F838800820F5E7416B8907A8
:1050700003D5C0F838900220EEE7416B890603D5CE
:10508000202181630846E7E740F2FF5181630098E1
:1050900000BA7060019800BA30600020DCE710B5FB
:1050A00090B004460120ADF838002068FFF713FCEB
:1050B000002864D0606C032842D02068FFF74BFDC5
:1050C00000285AD100212068FFF709FC60670421FD
:1050D0002068FFF704FCA06708212068FFF7FFFBAA
:1050E000E0670C212068FFF7FAFBC4F88000606CD1
:1050F000032825D00EA92068FFF78AFD00283CD19F
:10510000606C03281CD0BDF83800206501042068BD
:10511000FFF737FD002830D100212068FFF7DFFBC3
:10512000606604212068FFF7DAFBA066082120688A
:10513000FFF7D5FBE0660C212068FFF7D0FB206766
:1051400004212068FFF7CBFB000DE06403A9204693
:10515000FCF797F8B4F85000002302042068FFF72A
:10516000E1FC002809D104F1100007C88DE8070010
:1051700094E80F00FFF7B9FB002010B010BD4FF00E
:105180008060FAE72DE9F8430025044600950068A1
:10519000FFF73AFC00281AD12068FFF75DFC4FF0BA
:1051A00080784FF6FF76D8B14FF08057A56400980D
:1051B000411C0091B0421AD000212068FFF7BEFBCD
:1051C00020B900212068FFF7D3FB10B13846BDE8B5
:1051D000F88300212068FFF782FBC00FE7D01FE0B3
:1051E0000127A7640098411C0091B04201D14046BC
:1051F000EDE700212068FFF7A1FB0028E7D14FF081
:1052000080412068FFF7B4FB0028E0D1002120682E
:10521000FFF765FBC10FE5D0400001D5676400E0F2
:1052200065640020D3E71CB504460020009001907F
:1052300000212068FFF753FB800102D54FF4006086
:105240001CBD69462046FFF7C0FE0028F8D1019832
:10525000C0030CD5B4F8500001042068FFF76EFBC2
:105260000028EDD100212068FFF7B5FB1CBD4FF0F1
:1052700080601CBD1CB504460020009001900021F8
:105280002068FFF72CFB800102D54FF400601CBDA5
:1052900069462046FFF799FE0028F8D1019840039F
:1052A0000CD5B4F8500001042068FFF747FB002834
:1052B000EDD102212068FFF78EFB1CBD4FF080600E
:1052C0001CBD00007CB50E4C05460120207001F08D
:1052D0006AFD98B1FBF74EF918B92846FFF714FE9E
:1052E00020702078012809D00649D1E90001CDE9D4
:1052F00000010021684601F070FD606020787CBDEF
:105300001C000020A486000810B5124888B014467E
:105310000078C00702D0032008B010BDC1B1012938
:1053200005D0022908D003290CD00420F4E76846F0
:10533000FBF70EF906980AE06846FBF709F90798AB
:10534000208005E06846FBF703F90798400A2060D3
:105350000020E1E71C0000203EB515460846012468
:105360001A462946FBF720F9C8B90F4847F23055CD
:105370002A464168684601F035FDDDE90010102934
:105380000DD101280BD101F01CFD054403E000BF45
:10539000FBF7E4F828B101F014FDA842F8D3204649
:1053A0003EBD0024FBE700001C000020FFF7ACBD61
:1053B0003EB51546084601241A462946FBF70CF966
:1053C000C8B90F4847F230552A464168684601F08F
:1053D00009FDDDE9001010290DD102280BD101F0E3
:1053E000F0FC054403E000BFFBF7B8F828B101F07A
:1053F000E8FCA842F8D320463EBD0024FBE70000AD
:105400001C000020FFF752F9012001F0C5FCFBE76A
:1054100001F0BEBD30B5264893B00025016841F0CB
:1054200080510160006800F08050119021480168AF
:1054300041F4804101600068022400F48040119032
:1054400001200090000401908001CDE90640042075
:105450000890A820CDE9090407200B906846FBF7C7
:1054600045FD00B1FEE70CA90F2081E831004FF4A3
:10547000A0500F904FF48050109005210CA8FBF71E
:1054800013FC00B1FEE7FBF7A7FCFBF7CBFC4FF4E6
:105490007A71B0FBF1F0FCF7B2F90420FCF7A3F944
:1054A00000220F21501EFBF7CBFB13B030BD0000D4
:1054B00040380240007000401048016841F470011B
:1054C00001600F48016841F0010101600C4A0021B0
:1054D0000832116002680B4B1A400260031D0A4A31
:1054E0001A60026822F48022026005480C300160D4
:1054F00002495806803908607047000088ED00E0D6
:1055000000380240FFFFF6FE103000240148FCF78F
:10551000B5B90000D0010020F0B50268234B244D3E
:10552000244E254F254C4FF0804C984209D06045C1
:1055300007D0A84205D0B04203D0B84201D0A04263
:1055400004D122F0700E4A6842EA0E0298421BD043
:10555000604519D0A84217D0B04215D0B84213D038
:10556000A04211D0164DA8420ED0164DA8420BD025
:10557000154DA84208D0154DA84205D0144DA8429B
:1055800002D0144DA84203D122F44075CA682A43C0
:1055900002608A68C2620A688262984201D0A042B0
:1055A00001D10969016301214161F0BD00000140A1
:1055B0000004004000080040000C004000040140CE
:1055C00000400140004401400048014000180040F4
:1055D000001C00400020004010B5806B0021C185F8
:1055E000C184FCF70CFA10BD0168CA6822F49072FD
:1055F000CA6001684A6922F001024A61202180F8EC
:105600003A10704710B590F83A10222901D00220C4
:1056100010BD8168B1F5805F11D001690029016872
:105620001FD0496801F07F03816A4A1C82620B70B7
:10563000C18D491E0904090CC18518D026E00269F4
:10564000816A002A0268526805D0D2B20A80816A53
:10565000491C8162ECE7C2F308020A80816A891C56
:10566000F7E74A68816A4B1C83620A70E0E70168C9
:10567000CA6822F49072CA6001684A6922F0010285
:105680004A61202180F83A10FCF7A2FA002010BDF0
:105690002DE9F04104460068016921F44052E168B7
:1056A000114301612168C86849F20C629043236983
:1056B000A268E5691A4363692B431A430243CA602F
:1056C0002168486920F44072A06910434861E1698B
:1056D0006425B1F5004F9748974A21684FF032088A
:1056E0003FD0914201D081427CD1FBF7B1FB00EB6E
:1056F000C00101EB001061688900B0FBF1F6FBF717
:10570000A7FB00EBC00101EB001061688900B0FB52
:10571000F1F0B0FBF5F06FF01801484306EB8001A3
:1057200008EB0110B0FBF5F000F0F006FBF790FB82
:1057300000EBC00101EB001061688900B0FBF1F0E3
:10574000B0FBF5F006EB0016FBF782FB00EBC001A7
:1057500001EB001061688900B0FBF1F7FBF778FB03
:10576000D2E0914201D081423DD1FBF771FB00EBC9
:10577000C00101EB001061684900B0FBF1F0B0FB23
:10578000F5F00601FBF764FB00EBC00101EB001034
:1057900061684900B0FBF1F7FBF75AFB00EBC00171
:1057A00001EB001061684900B0FBF1F0B0FBF5F0CF
:1057B0006FF01801484307EB800108EBC100B0FB14
:1057C000F5F000F0F80006EB4006FBF741FB00EBBC
:1057D000C00101EB001061684900B0FBF1F7FBF775
:1057E00037FB3CE055E0FBF723FB00EBC00101EB8E
:1057F000001061684900B0FBF1F0B0FBF5F0060164
:10580000FBF716FB00EBC00101EB001061684900DB
:10581000B0FBF1F7FBF70CFB00EBC00101EB001054
:1058200061684900B0FBF1F0B0FBF5F06FF01801D2
:10583000484307EB800108EBC100B0FBF5F000F036
:10584000F80006EB4006FBF7F3FA00EBC00101EBB2
:10585000001061684900B0FBF1F7FBF7E9FA00EBD3
:10586000C00101EB001061684900B0FBF1F0B0FB32
:10587000F5F06FF01801484307EB800108EBC10019
:10588000B0FBF5F000F00700216830448860BDE807
:10589000F081FBF7CDFA00EBC00101EB001061686D
:1058A0008900B0FBF1F6FBF7C3FA00EBC00101EB96
:1058B000001061688900B0FBF1F0B0FBF5F06FF00B
:1058C0001801484306EB800108EB0110B0FBF5F02E
:1058D00000F0F006FBF7ACFA00EBC00101EB0010A2
:1058E00061688900B0FBF1F0B0FBF5F006EB001643
:1058F000FBF79EFA00EBC00101EB00106168890024
:10590000B0FBF1F7FBF794FA00EBC00101EB0010DC
:1059100061688900B0FBF1F0B0FBF5F06FF01801A1
:10592000484307EB800108EB0110B0FBF5F000F0F5
:105930000F00A9E7001401400010014090F8391051
:10594000212901D0022070478168B1F5805F016A8A
:105950000BD04A1C0262026809785160C18C491E52
:105960000904090CC1840ED017E009880268C1F34C
:105970000801516001690029016A02D0491C0162D5
:10598000ECE7891CFBE70168CA6822F08002CA6064
:105990000068C16841F04001C160002070472DE9F6
:1059A000F041984617460E460446069D1DE0681CC9
:1059B0001BD02DB1FBF794F8A0EB0800A84214D936
:1059C0002068C16821F4D071C1602068416921F06C
:1059D00001014161202084F8390084F83A00002058
:1059E00084F838000320BDE8F0812068006836EABA
:1059F000000004D00020B842D9D00020F3E70120F5
:105A0000F9E700000148FBF7FBBF00009001002010
:105A1000FEE7FEE70FB4054B10B503A9044A029850
:105A200000F018F810BC5DF814FB0000B56A00081F
:105A3000B800002002E008C8121F08C1002AFAD1ED
:105A400070477047002001E001C1121F002AFBD1FE
:105A5000704700002DE9FF4F8DB09B460F4604466E
:105A6000002606E025280BD05A460F999047641C63
:105A7000761C20780028F5D111B03046BDE8F08FB3
:105A80000025A8460122984900E0054314F8013F8B
:105A9000203B02FA03F00842F7D120782E2817D1D4
:105AA00014F8010F45F004052A280ED06FF02F02DC
:105AB0002078A0F1300109290AD808EB880102EB0F
:105AC000410100EB0108641CF2E757F8048B641CE9
:105AD00020786C280DD004DC4C2812D06A2811D113
