:020000040800F2
:10000000E01000209D0100084F140008ED120008C8
:100010004D1400088502000871210008000000004E
:10002000000000000000000000000000951C000817
:10003000870200080000000073140008971C0008E5
:10004000B7010008B7010008B7010008B7010008B0
:10005000B7010008B7010008B7010008B7010008A0
:10006000B7010008B7010008B7010008B701000890
:10007000B7010008B7010008B7010008B701000880
:10008000B7010008B7010008B7010008B701000870
:10009000B7010008B7010008B7010008B701000860
:1000A000B7010008B7010008B7010008B701000850
:1000B000B7010008B7010008B7010008B701000840
:1000C000B7010008B7010008B7010008B701000830
:1000D000B701000865210008B7010008B701000852
:1000E000B7010008B7010008B7010008B701000810
:1000F000B7010008B7010008B7010008B701000800
:10010000B7010008B7010008B7010008B7010008EF
:10011000B7010008B7010008B7010008B7010008DF
:10012000B7010008B7010008B7010008B7010008CF
:10013000B7010008B7010008B7010008B7010008BF
:10014000B7010008B7010008B7010008B7010008AF
:10015000B7010008B7010008B7010008B70100089F
:10016000B7010008B7010008B7010008B70100088F
:10017000B7010008B7010008B7010008000000003F
:10018000B7010008B7010008DFF80CD000F068F8EC
:100190000048004795210008E010002006488047ED
:1001A00006480047FEE7FEE7FEE7FEE7FEE7FEE75C
:1001B000FEE7FEE7FEE7FEE7491D000889010008AB
:1001C0002DE9F05F0546002092469B46884606468C
:1001D000814640241BE0284641464746224600F01F
:1001E0002FF853465A46C01A914110D3114618466B
:1001F000224600F016F82D1A67EB01084F462246FA
:100200000120002100F00DF817EB00094E41201EDF
:10021000A4F10104DFDC484631462A464346BDE8E6
:10022000F09F202A04DB203A00FA02F100207047F8
:100230009140C2F1200320FA03F319439040704724
:10024000202A04DB203A21FA02F00021704721FA2B
:1002500002F3D040C2F12002914008431946704792
:10026000064C074D06E0E06840F0010394E8070003
:1002700098471034AC42F6D3FFF78AFFE02100081C
:1002800000220008FEE7704770B5B3F5804F05D037
:100290006FF0704140F82210002070BD50F82240ED
:1002A000084B8E891C40D1E9003543EA05138D685F
:1002B00089692D0245EA06452B430B43234340F849
:1002C0002230E9E70000F0CFF0B50C6850F8243098
:1002D000114A1340D1E90125D1E903672A433E437E
:1002E00032434E6932438E693243CE6932430E6ADD
:1002F00032434E6A32438E6A3243CE6A3243CE6B09
:10030000096B32430A431A43082D01D142F04002DF
:1003100040F824200020F0BD8000F0FF30B500EB55
:10032000820250688D8900F04043D1E9000440EA20
:1003300004108C68240244EA054420430C8A074DCB
:1003400005EB045420430C7D6D0105EB04648969C1
:100350002043084318435060002030BD0000F0FFE8
:1003600000B59BB04FF0204000901548019014ABB1
:1003700002200121082283E80700CDE91710199017
:1003800000200421CDE9021010211A90CDE90401CA
:100390000690079009020890CDE909010B900C9096
:1003A0000D9014AA0E901146684600F061FE0028D8
:1003B00003D02A2103A001F0DCFE1BB000BD000029
:1003C000040100A02E2E5C5372635C5352414D5CBD
:1003D0007372616D2E63000090F83510022903D00E
:1003E0008021416501207047052180F835100068A3
:1003F000016821F0010101600020704770B50446DA
:1004000000F03CF90546601C02D004480078044422
:1004100000F034F9401BA042FAD370BD0C0000205C
:10042000F0B5214887B0016800293AD10121016067
:100430001E480024016841F00101016000680225A6
:1004400000F0010005904FF23F00CDE9000502AA3F
:1004500003260C2782E8D0006946154800F030F8E2
:1004600040F23F40CDE9000502AA694682E8D0008B
:10047000104800F025F84FF68370CDE9000502AA78
:10048000694682E8D0000C4800F01AF84FF6337045
:10049000CDE9000502AA694682E8D000074800F0CD
:1004A0000FF807B0F0BD000000000020383802400F
:1004B000001402400018024000100240000C0240EC
:1004C0002DE9F84FDFF87CB100224FF001084FF022
:1004D000030A4FF00F090BF1040E00BF0B6808FA76
:1004E00002F42340A3426ED14D68022D01D0122D9B
:1004F0000ED1D50800EB850CDCF820505607F70E1E
:1005000009FA07F6B5430E69BE402E43CCF82060C9
:10051000066855000F790AFA05FC07F0030726EA7A
:100520000C06AF40374307604E68012E05D0022EFF
:1005300003D0112E01D0122E0ED18668CF6826EA84
:100540000C06AF40374387604668A6430C79C4F376
:100550000014944034434460C6688C6826EA0C0654
:10056000AC403443C4604C68E40065D5364C256823
:1005700045F480452560246822F0030504F4804496
:100580000094324C2E19D6F8084895072F0F09FA17
:1005900007F5AC432E4DA84201D1002524E02D4D96
:1005A000A84201D101251FE02B4DA84201D102250F
:1005B0001AE02A4DA84201D1032515E0284DA84292
:1005C00002D1042510E037E0264DA84201D10525CF
:1005D0000AE0254DA84201D1062505E0234DA84299
:1005E00001D1072500E00825BD402543C6F808587D
:1005F000DBF800405D464E689C43F60300D51C4383
:100600002C60DEF8004075464E689C43B60300D56A
:100610001C432C600B4D08352C684E689C43F60239
:1006200000D51C432C60074D0C352C684E689C434C
:10063000B60200D51C432C60521C102AFFF44EAFAA
:10064000BDE8F88F003C01404438024000300140D2
:10065000000002400004024000080240000C02407A
:10066000001002400014024000180240001C02402A
:100670000AB1816170470904FBE700000148806806
:10068000704700000C000020024881680278114485
:10069000816070470C0000200B4810B5016841F4E0
:1006A00000710160016841F480610160016841F4FA
:1006B00080710160032000F097F8002000F006F838
:1006C00000F024F8002010BD003C024070B50D4D34
:1006D00004464FF47A712878B1FBF0F00A490968B2
:1006E000B1FBF0F000F0FEFC48B9102C07D200225C
:1006F0002146501E00F058F800206C6070BD0120AB
:1007000070BD00000C000020080000201F4808B544
:10071000016841F480410160006800F4804000906D
:100720001A48001F016841F080510160006800F024
:1007300080500090032000F057F8002211466FF01F
:100740000B0000F031F8002211466FF00A0000F0B3
:100750002BF8002211466FF0090000F025F8002266
:100760001146501F00F020F800221146101F00F023
:100770001BF800221146901E00F016F80022BDE87A
:1007800008401146501E00F00FB8000044380240E7
:1007900000F01F02012191404009800000F1E0209B
:1007A000C0F8001170470000F0B40E4B1B680C46F7
:1007B000C3F30223C3F10705042D00D90425191D35
:1007C000072901D2002300E0DB1E012606FA05F10D
:1007D000491E214099409E40761E16403143F0BC90
:1007E00000F037BE0CED00E0064900F00702086893
:1007F0004FF6FF03184040EA0220034A1043086006
:10080000704700000CED00E00000FA0570470000A2
:100810002DE9F0470E46050065D0DFF81481D8F8C1
:100820000000F7B200F00F00B04207D288F8007065
:10083000D8F8000000F00F00B04254D128683D4CB9
:10084000810712D5400703D5206840F4E0502060AE
:100850002878000703D5206840F4604020602068B5
:10086000A96820F0F000084320602878C0072DD048
:10087000304968680839012812D0022813D00328AB
:1008800011D00968890700292DDA216821F00301B8
:1008900001432160FFF7F2FE814641F2883A0EE003
:1008A00009688903EFE709688901ECE7FFF7E6FECD
:1008B000A0EB0901514502D90320BDE8F08720686B
:1008C000696800F00C00B0EB810FEFD1D8F8001090
:1008D000404601F00F01B14207D90770006800F0EF
:1008E0000F00B04201D00120E7E72878400705D586
:1008F0002068E96820F4E050084320602878000769
:1009000006D52068296920F4604040EAC1002060D3
:1009100000F042F82168084AC1F30311515CC84055
:10092000064908600020FFF7D1FE0020C5E700005F
:10093000003C024008380240C8210008080000209E
:1009400001490120C864704700004742014800681F
:100950007047000008000020044805490068096845
:10096000044AC1F38221515CC8407047080000204E
:1009700008380240D8210008044805490068096881
:10098000044AC1F34231515CC8407047080000205E
:1009900008380240D8210008154810B5006810F04A
:1009A0000C02144813D04110042A0FD0082A0ED18B
:1009B0000F4C241F2268236802F03F025B0207D518
:1009C0002068C0F38810A0FB010106E0084610BDB6
:1009D0002168C1F38811A1FB00010023FFF7F0FBA0
:1009E0002168C1F30141491C4900B0FBF1F010BD81
:1009F000083802400024F400054810B500680006DD
:100A000005D5FFF703FF02498020891C087010BD3F
:100A10000C3802402DE9F84F050076D02878DFF831
:100A2000F8B2BE4CC00749D0DBF800105846C1F3FD
:100A30008101012908D00068C0F3810002280AD191
:100A4000201D0068400206D52068800336D56868FE
:100A50000028E2D032E06868B0F5803F10D0B0F5F1
:100A6000A02F206810D020F480302060206820F46F
:100A7000802020606868A0B1FFF700FE06460CE009
:100A8000206840F48030F4E740F480202060F7E7ED
:100A9000FFF7F4FD801B642873D820688003F7D526
:100AA0000CE0FFF7EBFD064605E000BFFFF7E6FDB3
:100AB000801B6428F0D820688003F7D42878DFF8FA
:100AC000608280074FF000093ED5DBF800105846E1
:100AD00011F00C0F09D00068C0F3810002280BD17F
:100AE0008D48001F0068400206D42068800715D595
:100AF000E868012809D111E0E868B8B10120C8F818
:100B00000000FFF7BBFD064605E002E1FFF7B6FD7A
:100B1000801B0228C0D820688007F7D52068296983
:100B200020F0F80040EAC10020600DE0C8F8009015
:100B3000FFF7A4FD064604E0FFF7A0FD801B022896
:100B40001FD820688007F7D42878000722D5724E76
:100B5000744869696C3671B101210160FFF78EFD3F
:100B6000074604E0FFF78AFDC01B022809D8306859
:100B70008007F7D50EE0C0F80090FFF77FFD07462D
:100B800005E083E0FFF77AFDC01B02287ED83068BD
:100B90008007F7D42878400768D5DFF87CA10027C4
:100BA0000AF1380ADAF80000C0000BD4DAF80010B5
:100BB00041F08051CAF80010DAF80000012700F077
:100BC00080500090584E3068C00510D4306840F412
:100BD00080703060FFF752FD009005E0FFF74EFD9A
:100BE0000099401A022851D83068C005F6D54A4EFF
:100BF000A868683601280FD00528306810D020F08A
:100C000001003060306820F004003060A868B8B19E
:100C1000FFF734FD00900FE0306840F00100F4E78A
:100C200040F004003060F7E7FFF728FD0099411A13
:100C300041F28830814264D830688007F4D50EE0F4
:100C4000FFF71CFD009007E0FFF718FD0099411A1F
:100C500041F28830814254D830688007F4D42FB1F3
:100C6000DAF8001021F08051CAF80010A869C0B36A
:100C7000DBF80010C1F3810102294AD0022848465E
:100C800007D0C8F86000FFF7F9FC00E039E005463E
:100C90003AE04746C8F86000FFF7F0FC064604E07B
:100CA000FFF7ECFC801B02282BD820688001F7D4CA
:100CB000D5E907010843A96A1C4A490802EB01412A
:100CC0006A6A41EA8211084395F82C1040EA0161F2
:100CD0001148001F016001203866FFF7CFFC054670
:100CE00005E014E0FFF7CAFC401B022809D8206881
:100CF0008001F7D50BE000BFFFF7C0FC401B0228C6
:100D000002D90320BDE8F88F20688001F4D40020C8
:100D1000F8E70120F6E700000838024000380240FA
:100D200000004742800E4742007000400000FFFF75
:100D3000FEB5044603200D4684F83400606C032899
:100D400020D0B5F5805F1DD0B5F5006F05D045B159
:100D5000A06B40F00060A06309E0204600F073FF44
:100D600002E0204600F048FFA16B0143A163A06BA5
:100D7000012658B1216840F2FF50886384F834603E
:100D80000120FEBDA06B40F08050E4E7211DD4E9B6
:100D900005700EC90095CDE90170206800F086FB52
:100DA00084F834600020FEBDF0B5426E120E930947
:100DB0000B70C2F383034B7002F003028A70426E21
:100DC000120CCA70B0F86420120A0A7190F86420FC
:100DD0004A71826E4FF6FF73120E03EA0212CA8046
:100DE000826ECB88C2F3074243EA1213CB8002F033
:100DF0000F020A72B0F86820C2F30722D3094B72BF
:100E0000C2F380138B72C2F34013CB72C2F3001390
:100E10000B7300264E73446C4FF4007701236CB1C2
:100E2000012C43D0026840F2FF519163816B41F085
:100E30008051816380F834300120F0BD9207120D9B
:100E40000A6190F868200C6944EA82020A61C26E65
:100E50000C69120E44EA92140C61C2F3C2040C75C0
:100E600002F007024A75C26EC2F3074254098C753C
:100E7000C2F38204CC759207520F0A76B0F86C2048
:100E8000C2F307240A7E42EAD4120A760A69521C87
:100E900042650D7EAD1CAA4042650D7A03FA05F548
:100EA00085656D0A6A43C0E917271CE090F8682041
:100EB0009206920A0A61C26E0C69120E44EA02227C
:100EC0000A61C26E0C69C2F3074214430C61B0F8A8
:100ED0006C20C2F307240A69521C4FEA8222426541
:100EE000C0E916720766C4F3801201F8192F4FEAA1
:100EF00084624FEA52624A7010F86C2F4C7844EAD0
:100F0000D2144C7002F07F028A7042684FEA12627B
:100F10004FEAD214CC70C2F341140C71C2F38204B4
:100F20004C714FEA82724FEA12728A7142688C7970
:100F3000C2F3074244EA92148C71C2F34014CC719C
:100F40000E7202F001024A728288C2F307224FEA4F
:100F5000D2148C72C2F38014CC72C2F340140C739E
:100F6000C2F300144C73C2F381048C7302F00302C9
:100F7000CA7300794FEA500008744B744FF00000B8
:100F8000F0BD70B5040004D094F83400002510B111
:100F900005E0012070BD2577204600F037F80320DA
:100FA00084F83400204600F007F8A563256301208B
:100FB00084F83400002070BDFEB50025044676207C
:100FC0000095CDE901502B462A462946206800F0BD
:100FD0006DFA0D4E46F8A05F206800F079FA012501
:100FE00035600220FFF70AFA204600F0B4FD20B970
:100FF000204600F03DFD002805D084F83450A16B58
:101000000143A1630120FEBD00802542F0B50068C8
:10101000134987B0884221D112480024016841F465
:10102000006101600068022500F4006005904FF443
:10103000F850CDE9000502AA03260C2782E8D0006B
:1010400069460948FFF73CFA0420CDE9000502AAE9
:10105000694682E8D0000548FFF732FA07B0F0BDD4
:10106000002C01404438024000080240000C0240BD
:1010700070B515460E46040003D094F8490010B12F
:1010800007E0012070BD002084F84800204600F0F1
:101090001AF804F108012068FFF716F93146A26832
:1010A0002068FFF73BF9D4E901022946236BFFF7DB
:1010B000EBF8A168206850F8212042F0010240F8C6
:1010C0002120002070BDFFF7ABB94FF0E0210428CC
:1010D000086903D020F004000861704740F0040064
:1010E000FAE7704710B5401EB0F1807F01D30120B0
:1010F00010BD4FF0E02460610F21601700F0A9F9E6
:101100000020A06107202061002010BD10B5FFF76E
:10111000E8FF10BD7047000070B502680446106813
:10112000D168536910F00F0F50D003F0010501F49E
:10113000907635435DD0C20705D0CA0503D5E26B72
:1011400042F00102E263420705D5DA0703D0E26B01
:1011500042F00202E263820705D5DA0703D0E26BB0
:1011600042F00402E263020705D5DA0703D0E26B1E
:1011700042F00802E263E26B002A33D0800604D515
:10118000880602D5204600F01FFE20684069E16B0A
:10119000C0F38010090700D428B3204600F006FEF3
:1011A0002068416949061AD5416921F04001416131
:1011B000606BA0B11B490165606BFFF70DF900285A
:1011C00010D0606B016DBDE870400847830610D5F4
:1011D0008B060ED52046BDE8704000F0F5BD2046D8
:1011E000FFF798FF70BD2046FFF794FF0020E063F3
:1011F00070BD030606D50B0604D52046BDE8704039
:1012000000F07EBF4006F3D54806F1D5D1682046F0
:1012100021F04001D160202184F8391000F065F8F8
:1012200070BD00009D1D000870B5040004D094F846
:101230003900002510B106E0012070BD84F8385057
:10124000204600F023F8242084F839002068C16883
:1012500021F40051C160204600F0FCFD20680169C6
:1012600021F4904101612068416921F02A01416126
:101270002068C16841F40051C160E563202084F812
:10128000390084F83A00002070BD000000B5006805
:10129000124987B088421FD11148016841F01001FE
:1012A00001600068694600F0100005904FF4C060CE
:1012B000009002200190012002900320039007205B
:1012C00004900848FFF7FCF8002211462520FFF79C
:1012D0006BFA2520FFF75CFA07B000BD0010014053
:1012E000443802400000024070477047FEE70000AB
:1012F00070B52B4886B00025016841F020010160DF
:10130000016801F020010591016841F08001016050
:10131000016801F080010591016841F04001016020
:10132000016801F040010591016841F01001016080
:10133000016801F010010591016841F008010160A8
:10134000016801F008010591016841F004010160A4
:10135000016801F004010591016841F0010101609B
:10136000016801F001010591016841F0020101608D
:1013700000680C4E00F002004FF4C064059000229B
:1013800021463046FFF774F90120CDE900400220E4
:10139000CDE9025069463046FFF792F806B070BDBD
:1013A0003038024000140240104810B50E49016068
:1013B000002141608160C160016141618161FFF78D
:1013C000E0FD18B141210AA000F0D3FE4FF4006106
:1013D0000648FFF7ADFC002805D0BDE810404621C7
:1013E00003A000F0C6BE10BD002C01401800002074
:1013F0002E2E2F5372632F7364696F2E63000000CB
:101400000D4810B50B4901604FF4E13141600021F6
:1014100081600C22C160C0E904128161C161FFF7E3
:1014200003FF002805D0BDE81040422103A000F0D2
:10143000A0BE10BD001001409C0000202E2E2F5396
:1014400072632F75736172742E630000FEE7FFF7FD
:10145000D3BA0907090E002806DA00F00F0000F1E0
:10146000E02080F8141D704700F1E02080F800149F
:10147000704770470A6842624A688262D1E9022373
:101480001A43D1E904310B43C16A1A4321F0F70131
:101490001143C16200207047006800F003007047EC
:1014A00008B5084414300090006808BD70B50DF10F
:1014B000100C11439CE870002343194329434268F0
:1014C000314347F6FF639A430A434260002070BDF0
:1014D0000321016000207047D0F8800070470A683F
:1014E0008260D1E901231A43D1E903310B43C1687A
:1014F0001A436FF30B011143C1600020704710B510
:1015000086B004463720CDE900104020029000202C
:1015100003904FF48060049069462046FFF7DFFF98
:1015200041F288323721204600F020F906B010BD84
:1015300010B504460A4886B001432920CDE90010C1
:1015400040200290002003904FF480600490694690
:101550002046FFF7C4FF204600F0BEF906B010BDDC
:101560000000108010B586B004461020CDE90010B0
:1015700040200290002003904FF480600490694660
:101580002046FFF7ACFF41F288321021204600F0E0
:10159000EDF806B010BD10B586B004460620CDE9C2
:1015A000001040200290002003904FF480600490CF
:1015B00069462046FFF793FF41F288320621204614
:1015C00000F0D4F806B010BD30B585B00024054653
:1015D000009401944FF480600294CDE90340694681
:1015E0002846FFF77CFF0B484FF4FA510068B0FB28
:1015F000F1F041F288314843401E03D24FF00040E1
:1016000005B030BD696B0906F6D540F2FF50A863FE
:101610002046F5E70800002070B585B004464FF479
:10162000D570009008204026CDE901060025C001B4
:10163000CDE9035069462046FFF751FF0F484FF4AC
:10164000FA510068B0FBF1F041F288314843401E86
:1016500002D24FF000450DE0616B11F0450FF6D05E
:10166000606B400702D5A663042503E0606B40066B
:1016700000D5A66305B0284670BD00000800002014
:1016800010B586B004460720CDE900204020029026
:10169000002003904FF48060049069462046FFF7D5
:1016A0001EFF41F288320721204600F05FF806B0A5
:1016B00010BD10B586B0044600210220CDE900100F
:1016C000C020CDE902014FF48060049069462046B5
:1016D000FFF705FF204600F0D7F806B010BD10B5A3
:1016E00086B004460920CDE90010C02002900020F9
:1016F00003904FF48060049069462046FFF7EFFEA8
:10170000204600F0C1F806B010BD10B586B0044602
:1017100000213320CDE900104020CDE90201000175
:10172000049069462046FFF7DAFE41F28832332101
:10173000204600F01BF806B010BD30B585B00C4651
:10174000054600210320CDE900104020CDE902012B
:101750000001049069462846FFF7C1FE2246032196
:10176000284600F0D9F805B030BD0000444B10B554
:101770001B684FF4FA54B3FBF4F353435B1E02D2DD
:101780004FF0004010BD426B12F0450FF6D0426B97
:10179000520703D504218163084610BD426BD2076E
:1017A00002D00121816303E00269D2B28A4201D0F2
:1017B000012010BD40F2FF5181630021FFF770FE50
:1017C0003049084201D1002010BD002802DA4FF054
:1017D000007010BD410001D5402010BD810001D531
:1017E000802010BDC10002D54FF4807010BD0101F2
:1017F00002D54FF4007010BD410102D54FF4806056
:1018000010BDC10102D54FF4006010BD010202D528
:101810004FF4805010BD410202D54FF4005010BD6E
:10182000810202D54FF4804010BDC10202D54FF4B1
:10183000004010BD410302D54FF4003010BD8103BC
:1018400002D54FF4802010BDC10302D54FF4002013
:1018500010BD010402D54FF4801010BD410402D523
:101860004FF4001010BD810402D54FF4800010BD6C
:10187000000702D54FF4000010BD4FF4803010BDBA
:101880000800002008E0FFFD12494FF4FA520968F1
:10189000B1FBF2F141F288325143491E02D24FF0BE
:1018A00000407047426B12F0450FF6D0416B49077C
:1018B00003D50421816308467047416BC90703D0F3
:1018C000012181630846704740F2FF518163002087
:1018D00070470000080000200E494FF4FA520968D2
:1018E000B1FBF2F141F288325143491E02D24FF06E
:1018F00000407047426B12F0450FF6D0416B49072C
:1019000003D5042181630846704740F2FF5181638B
:1019100000207047080000201F4B10B51B684FF4D3
:10192000FA54B3FBF4F341F2883463435B1E02D2F2
:101930004FF0004010BD446B14F0450FF6D0436BE0
:101940005B0703D504218163084610BD436BDB07A9
:1019500002D00121816303E00369DBB28B4201D035
:10196000012010BD40F2FF5181630021FFF798FD77
:1019700010F4604F04D0410406D54FF4005010BD60
:10198000000C1080002010BD000402D54FF48050E0
:1019900010BD4FF4803010BD080000202DE9F04F3D
:1019A00089B00E460446FEF769FE00258346009581
:1019B00001952F4608212068FFF7D4FD002834D177
:1019C000B4F8500001042068FFF799FD00282CD1DD
:1019D000401E4FF00808CDE9020830204FF0020900
:1019E000CDE904090120CDE9067002A92068FFF7BE
:1019F00041FD2068FFF789FE002816D1EA4640F233
:101A00002A472068416B394212D1416B890204D5C3
:101A1000FFF762FD4AF825006D1CFEF72FFEA0EBD4
:101A20000B00401CEDD14FF0004009B0BDE8F08F35
:101A3000416B090703D5C0F838800820F5E7416BF2
:101A4000890703D5C0F838900220EEE7416B89067C
:101A500003D5202181630846E7E740F2FF51816307
:101A6000009800BA7060019800BA30600020DCE78E
:101A700010B590B004460120ADF838002068FFF79B
:101A80000BFD002864D0606C032842D02068FFF76B
:101A900010FE00285AD100212068FFF701FD606781
:101AA00004212068FFF7FCFCA06708212068FFF7ED
:101AB000F7FCE0670C212068FFF7F2FCC4F8800017
:101AC000606C032825D00EA92068FFF736FE002899
:101AD0003CD1606C03281CD0BDF83800206501049F
:101AE0002068FFF7FCFD002830D100212068FFF7B7
:101AF000D7FC606604212068FFF7D2FCA0660821AD
:101B00002068FFF7CDFCE0660C212068FFF7C8FCD9
:101B1000206704212068FFF7C3FC000DE06403A9DF
:101B20002046FFF741F9B4F8500000230204206872
:101B3000FFF7A6FD002809D104F1100007C88DE8C1
:101B4000070094E80F00FFF7B1FC002010B010BDB3
:101B50004FF08060FAE72DE9F84300250446009530
:101B60000068FFF731FD00281AD12068FFF754FD07
:101B70004FF080784FF6FF76D8B14FF08057A564CC
:101B80000098411C0091B0421AD000212068FFF754
:101B9000B6FC20B900212068FFF7CAFC10B1384616
:101BA000BDE8F88300212068FFF77AFCC00FE7D07A
:101BB0001FE00127A7640098411C0091B04201D1A9
:101BC0004046EDE700212068FFF799FC0028E7D1A7
:101BD0004FF080412068FFF7ABFC0028E0D10021E6
:101BE0002068FFF75DFCC10FE5D0400001D56764B8
:101BF00000E065640020D3E71CB504460020009097
:101C0000019000212068FFF74BFC800102D54FF4C2
:101C100000601CBD69462046FFF7C0FE0028F8D1D1
:101C20000198C0030CD5B4F8500001042068FFF7F8
:101C300066FC0028EDD100212068FFF7ACFC1CBD3C
:101C40004FF080601CBD1CB5044600200090019040
:101C500000212068FFF724FC800102D54FF40060CA
:101C60001CBD69462046FFF799FE0028F8D101986F
:101C700040030CD5B4F8500001042068FFF73FFC86
:101C80000028EDD102212068FFF785FC1CBD4FF034
:101C900080601CBD704710B5FEF7F6FCBDE8104033
:101CA000FFF734BA30B5264893B00025016841F0FB
:101CB00080510160006800F0805011902148016857
:101CC00041F4804101600068022400F480401190DA
:101CD00001200090000401908001CDE9064004201D
:101CE0000890A820CDE9090407200B906846FEF76C
:101CF00091FE00B1FEE70CA90F2081E831004FF4FE
:101D0000A0500F904FF48050109005210CA8FEF7C2
:101D10007FFD00B1FEE7FEF713FEFEF717FE4FF45E
:101D20007A71B0FBF1F0FFF7DDF90420FFF7CDF990
:101D300000221146501EFEF737FD13B030BD0000E3
:101D400040380240007000401048016841F47001C2
:101D500001600F48016841F0010101600C4A002157
:101D60000832116002680B4B1A400260031D0A4AD8
:101D70001A60026822F48022026005480C3001607B
:101D800002495806803908607047000088ED00E07D
:101D900000380240FFFFF6FE1030002410B5806BC3
:101DA0000021C185C184FFF7B5F910BD0168CA687B
:101DB00022F49072CA6001684A6922F001024A6105
:101DC000202180F83A10704710B590F83A10222977
:101DD00001D0022010BD8168B1F5805F11D001698A
:101DE000002901681FD0496801F07F03816A4A1CFD
:101DF00082620B70C18D491E0904090CC18518D07F
:101E000026E00269816A002A0268526805D0D2B2CF
:101E10000A80816A491C8162ECE7C2F308020A80E9
:101E2000816A891CF7E74A68816A4B1C83620A70E1
:101E3000E0E70168CA6822F49072CA6001684A69E2
:101E400022F001024A61202180F83A10FFF74CFA93
:101E5000002010BD2DE9F04104460068016921F41D
:101E60004052E168114301612168C86849F20C627F
:101E700090432369A268E5691A4363692B431A43B7
:101E80000243CA602168486920F44072A069104387
:101E90004861E1696425B1F5004F9748974A216888
:101EA0004FF032083FD0914201D081427CD1FEF701
:101EB00063FD00EBC00101EB001061688900B0FB1D
:101EC000F1F6FEF759FD00EBC00101EB001061686F
:101ED0008900B0FBF1F0B0FBF5F06FF0180148435A
:101EE00006EB800108EB0110B0FBF5F000F0F00606
:101EF000FEF742FD00EBC00101EB001061688900B4
:101F0000B0FBF1F0B0FBF5F006EB0016FEF734FD88
:101F100000EBC00101EB001061688900B0FBF1F734
:101F2000FEF72AFDD2E0914201D081423DD1FEF779
:101F300023FD00EBC00101EB001061684900B0FB1C
:101F4000F1F0B0FBF5F00601FEF716FD00EBC00165
:101F500001EB001061684900B0FBF1F7FEF70CFDE2
:101F600000EBC00101EB001061684900B0FBF1F02B
:101F7000B0FBF5F06FF01801484307EB800108EB68
:101F8000C100B0FBF5F000F0F80006EB4006FEF7EC
:101F9000F3FC00EBC00101EB001061684900B0FBED
:101FA000F1F7FEF7E9FC3CE055E0FEF7D5FC00EB6D
:101FB000C00101EB001061684900B0FBF1F0B0FB1B
:101FC000F5F00601FEF7C8FC00EBC00101EB0010C4
:101FD00061684900B0FBF1F7FEF7BEFC00EBC00101
:101FE00001EB001061684900B0FBF1F0B0FBF5F0C7
:101FF0006FF01801484307EB800108EBC100B0FB0C
:10200000F5F000F0F80006EB4006FEF7A5FC00EB4B
:10201000C00101EB001061684900B0FBF1F7FEF769
:102020009BFC00EBC00101EB001061684900B0FBB4
:10203000F1F0B0FBF5F06FF01801484307EB8001B9
:1020400008EBC100B0FBF5F000F007002168304458
:102050008860BDE8F081FEF77FFC00EBC00101EB7A
:10206000001061688900B0FBF1F6FEF775FC00EB2B
:10207000C00101EB001061688900B0FBF1F0B0FB1A
:10208000F5F06FF01801484306EB800108EB0110F2
:10209000B0FBF5F000F0F006FEF75EFC00EBC001CF
:1020A00001EB001061688900B0FBF1F0B0FBF5F0C6
:1020B00006EB0016FEF750FC00EBC00101EB001030
:1020C00061688900B0FBF1F7FEF746FC00EBC00148
:1020D00001EB001061688900B0FBF1F0B0FBF5F096
:1020E0006FF01801484307EB800108EB0110B0FBCB
:1020F000F5F000F00F00A9E70014014000100140C6
:1021000090F83910212901D0022070478168B1F57B
:10211000805F016A0BD04A1C026202680978516034
:10212000C18C491E0904090CC1840ED017E009882E
:102130000268C1F30801516001690029016A02D0F7
:10214000491C0162ECE7891CFBE70168CA6822F0C0
:102150008002CA600068C16841F04001C16000208F
:10216000704700000148FEF7D7BF00009C00002028
:10217000FEE7FEE702E008C8121F08C1002AFAD1F4
:1021800070477047002001E001C1121F002AFBD1F7
:102190007047000008B5FEF77FFAFFF783FD094896
:1021A000016841F010010160006800F0100000902B
:1021B000FFF79EF8FFF7F8F8FFF722F9FEF7D0F8DF
:1021C000FEE700004438024000000000000000006C
:1021D00001020304060708090000000001020304CD
:1021E00000220008000000201800000074210008F0
:1021F0001822000818000020C810000084210008E0
:1022000000000000000000000024F40001000000B5
:082210001000000000000000B6
:040000050800018965
:00000001FF
