:020000040800F2
:10000000704F002059020008CB170008F1150008B6
:10001000C917000841030008AD25000800000000D2
:100020000000000000000000000000009D0100082A
:100030004303000800000000F1010008112000083F
:1000400073020008730200087302000873020008BC
:1000500073020008730200087302000873020008AC
:10006000730200087302000873020008730200089C
:10007000730200087302000873020008730200088C
:10008000730200087302000873020008730200087C
:10009000730200087302000873020008730200086C
:1000A000730200087302000873020008730200085C
:1000B000730200087302000873020008730200084C
:1000C000730200087302000873020008730200083C
:1000D00073020008A12500087302000873020008DB
:1000E000730200087302000873020008730200081C
:1000F000730200087302000873020008730200080C
:1001000073020008730200087302000873020008FB
:100110007302000873020008730200080D21000832
:1001200073020008730200087302000873020008DB
:1001300073020008730200087302000873020008CB
:1001400073020008730200087302000873020008BB
:1001500073020008730200087302000873020008AB
:10016000730200087302000873020008730200089B
:100170007302000873020008730200080000000008
:100180007302000873020008DFF80CD000F0C6F814
:1001900000480047D1250008704F00202B4B1968FC
:1001A0000868B0E8F04F80F30988BFF36F8F4FF015
:1001B000000080F3118870470000000006480068C6
:1001C000006880F3088862B661B6BFF34F8FBFF353
:1001D0006F8F00DF00BF00BF08ED00E0DFF80C000C
:1001E000016841F470010160704700BF88ED00E0D4
:1001F000EFF30980BFF36F8F144B1A681EF0100FD6
:1002000008BF20ED108A20E9F04F106008B44FF0CD
:10021000500080F31188BFF34F8FBFF36F8F02F050
:1002200065FD4FF0000080F3118808BC196808686C
:10023000B0E8F04F1EF0100F08BFB0EC108A80F34A
:100240000988BFF36F8F704700BF00BF40000020D8
:10025000EFF30580704700000648804706480047D6
:10026000FEE7FEE7FEE7FEE7FEE7FEE7FEE7FEE766
:10027000FEE7FEE7B9200008890100082DE9F05FDC
:100280000546002092469B46884606468146402405
:100290001BE0284641464746224600F02FF85346C9
:1002A0005A46C01A914110D311461846224600F012
:1002B00016F82D1A67EB01084F462246012000214F
:1002C00000F00DF817EB00094E41201EA4F10104C7
:1002D000DFDC484631462A464346BDE8F09F202AE7
:1002E00004DB203A00FA02F1002070479140C2F18D
:1002F000200320FA03F3194390407047202A04DBBF
:10030000203A21FA02F00021704721FA02F3D0408E
:10031000C2F120029140084319467047064C074D30
:1003200006E0E06840F0010394E8070098471034C5
:10033000AC42F6D3FFF72CFF6C3000088C3000087D
:10034000FEE7704770B5B3F5804F05D06FF0704190
:1003500040F82210002070BD50F82240084B8E89D2
:100360001C40D1E9003543EA05138D6889692D02E7
:1003700045EA06452B430B43234340F82230E9E787
:100380000000F0CFF0B50C6850F82430114A13404B
:10039000D1E90125D1E903672A433E4332434E693F
:1003A00032438E693243CE6932430E6A32434E6A1B
:1003B00032438E6A3243CE6A3243CE6B096B32438C
:1003C0000A431A43082D01D142F0400240F824208C
:1003D0000020F0BD8000F0FF30B500EB82025068D5
:1003E0008D8900F04043D1E9000440EA04108C6894
:1003F000240244EA054420430C8A074D05EB0454CB
:1004000020430C7D6D0105EB04648969204308439A
:1004100018435060002030BD0000F0FF00B59BB0D5
:100420004FF0204000901548019014AB02200121AC
:10043000082283E80700CDE9171019900020042155
:10044000CDE9021010211A90CDE904010690079021
:1004500009020890CDE909010B900C900D9014AAA7
:100460000E901146684600F09FFE002803D02A2116
:1004700003A002F09CF81BB000BD0000040100A026
:100480002E2E5C5372635C5352414D5C7372616DEE
:100490002E63000090F83510022903D080214165B9
:1004A00001207047052180F835100068016821F0AF
:1004B000010101600020704770B5044600F040F96A
:1004C0000546601C02D004480078044400F038F966
:1004D000401BA042FAD370BD10000020F0B52148A7
:1004E00087B0016800293AD1012101601E4800242B
:1004F000016841F0010101600068022500F001007F
:1005000005904FF23F00CDE9000502AA03260C2713
:1005100082E8D0006946154800F030F840F23F40CC
:10052000CDE9000502AA694682E8D000104800F033
:1005300025F84FF68370CDE9000502AA694682E8E6
:10054000D0000C4800F01AF84FF63370CDE90005E2
:1005500002AA694682E8D000074800F00FF807B009
:10056000F0BD0000040000203838024000140240B2
:100570000018024000100240000C02402DE9F84F24
:10058000DFF87CB100224FF001084FF0030A4FF072
:100590000F090BF1040E00BF0B6808FA02F42340A8
:1005A000A3426ED14D68022D01D0122D0ED1D50877
:1005B00000EB850CDCF820505607F70E09FA07F619
:1005C000B5430E69BE402E43CCF820600668550046
:1005D0000F790AFA05FC07F0030726EA0C06AF407C
:1005E000374307604E68012E05D0022E03D0112E2E
:1005F00001D0122E0ED18668CF6826EA0C06AF40D5
:10060000374387604668A6430C79C4F300149440CE
:1006100034434460C6688C6826EA0C06AC40344318
:10062000C4604C68E40065D5364C256845F48045C7
:100630002560246822F0030504F480440094324CC1
:100640002E19D6F8084895072F0F09FA07F5AC437D
:100650002E4DA84201D1002524E02D4DA84201D104
:1006600001251FE02B4DA84201D102251AE02A4D99
:10067000A84201D1032515E0284DA84202D1042546
:1006800010E037E0264DA84201D105250AE0254DAE
:10069000A84201D1062505E0234DA84201D1072536
:1006A00000E00825BD402543C6F80858DBF80040A7
:1006B0005D464E689C43F60300D51C432C60DEF873
:1006C000004075464E689C43B60300D51C432C6021
:1006D0000B4D08352C684E689C43F60200D51C4330
:1006E0002C60074D0C352C684E689C43B60200D533
:1006F0001C432C60521C102AFFF44EAFBDE8F88F4B
:10070000003C0140443802400030014000000240FB
:100710000004024000080240000C024000100240A9
:100720000014024000180240001C024042694A4086
:10073000426170470AB1816170470904FBE700001C
:10074000014880687047000010000020024881685E
:100750000278114481607047100000200B4810B5EA
:10076000016841F400710160016841F48061016039
:10077000016841F480710160032000F0B1F80020AD
:1007800000F006F800F03EF8002010BD003C0240EA
:1007900010B5014688B00022372000F081F83720DC
:1007A00000F072F813480024016841F02001016054
:1007B000006805A900F020000690684600F042F9A4
:1007C00000F066F90C494000B0FBF1F10C480B4A0F
:1007D000491E026040F2E732C0E90324C0E9011477
:1007E00000F031FD10B1012008B010BD044800F048
:1007F00046FDF9E74038024040420F000014004037
:10080000900100201F4808B5016841F48041016053
:10081000006800F4804000901A48001F016841F011
:1008200080510160006800F080500090032000F0CB
:1008300057F8002211466FF00B0000F031F800224B
:1008400011466FF00A0000F02BF8002211466FF0FD
:10085000090000F025F800221146501F00F020F892
:1008600000221146101F00F01BF800220F21901EDD
:1008700000F016F800220F21BDE80840501E00F0DD
:100880000FB800004438024000F01F0201219140DF
:100890004009800000F1E020C0F80011704700001E
:1008A000F0B40E4B1B680C46C3F30223C3F10705DB
:1008B000042D00D90425191D072901D2002300E0C9
:1008C000DB1E012606FA05F1491E214099409E4093
:1008D000761E16403143F0BC00F079BF0CED00E00D
:1008E000064900F0070208684FF6FF03184040EA87
:1008F0000220034A10430860704700000CED00E03E
:100900000000FA05704700002DE9F0470E4605008B
:1009100065D0DFF81481D8F80000F7B200F00F00BE
:10092000B04207D288F80070D8F8000000F00F003D
:10093000B04254D128683D4C810712D5400703D5F9
:10094000206840F4E05020602878000703D5206834
:1009500040F4604020602068A96820F0F00008435F
:1009600020602878C0072DD03049686808390128F0
:1009700012D0022813D0032811D009688907002952
:100980002DDA216821F0030101432160FFF7D8FE31
:10099000814641F2883A0EE009688903EFE7096869
:1009A0008901ECE7FFF7CCFEA0EB0901514502D924
:1009B0000320BDE8F0872068696800F00C00B0EB08
:1009C000810FEFD1D8F80010404601F00F01B1427D
:1009D00007D90770006800F00F00B04201D0012075
:1009E000E7E72878400705D52068E96820F4E0505B
:1009F000084320602878000706D52068296920F47C
:100A0000604040EAC100206000F062F82168084AB6
:100A1000C1F30311515CC840064908600020FFF78C
:100A2000B7FE0020C5E70000003C02400838024045
:100A3000543000080C00002001490120C8647047B0
:100A4000000047420F2202600C4A136803F00303C0
:100A50004360136803F0F0038360136803F4E0530A
:100A6000C36012684FF4E05303EAD2020261044803
:100A7000006800F00F00086070470000083802406E
:100A8000003C024001480068704700000C00002054
:100A90000448054900680968044AC1F38221515C91
:100AA000C84070470C00002008380240643000083D
:100AB0000448054900680968044AC1F34231515CA1
:100AC000C84070470C00002008380240643000081D
:100AD000154810B5006810F00C02144813D04110EE
:100AE000042A0FD0082A0ED10F4C241F2268236835
:100AF00002F03F025B0207D52068C0F38810A0FB1C
:100B0000010106E0084610BD2168C1F38811A1FB70
:100B100000010023FFF7B2FB2168C1F30141491C2A
:100B20004900B0FBF1F010BD083802400024F40089
:100B3000054810B50068000605D5FFF7E3FE024939
:100B40008020891C087010BD0C3802402DE9F84F38
:100B5000050076D02878DFF8F8B2BE4CC00749D03F
:100B6000DBF800105846C1F38101012908D0006864
:100B7000C0F3810002280AD1201D0068400206D57A
:100B80002068800336D568680028E2D032E06868C3
:100B9000B0F5803F10D0B0F5A02F206810D020F421
:100BA00080302060206820F4802020606868A0B138
:100BB000FFF7C6FD06460CE0206840F48030F4E7FD
:100BC00040F480202060F7E7FFF7BAFD801B64281F
:100BD00073D820688003F7D50CE0FFF7B1FD064617
:100BE00005E000BFFFF7ACFD801B6428F0D820684B
:100BF0008003F7D42878DFF8608280074FF000097F
:100C00003ED5DBF80010584611F00C0F09D00068F3
:100C1000C0F3810002280BD18D48001F00684002FC
:100C200006D42068800715D5E868012809D111E0AD
:100C3000E868B8B10120C8F80000FFF781FD06465A
:100C400005E002E1FFF77CFD801B0228C0D8206888
:100C50008007F7D52068296920F0F80040EAC10034
:100C600020600DE0C8F80090FFF76AFD064604E03A
:100C7000FFF766FD801B02281FD820688007F7D485
:100C80002878000722D5724E744869696C3671B1B4
:100C900001210160FFF754FD074604E0FFF750FD16
:100CA000C01B022809D830688007F7D50EE0C0F8CD
:100CB0000090FFF745FD074605E083E0FFF740FDA4
:100CC000C01B02287ED830688007F7D428784007F8
:100CD00068D5DFF87CA100270AF1380ADAF80000AD
:100CE000C0000BD4DAF8001041F08051CAF80010AF
:100CF000DAF80000012700F080500090584E30686C
:100D0000C00510D4306840F480703060FFF718FDE3
:100D1000009005E0FFF714FD0099401A022851D811
:100D20003068C005F6D54A4EA868683601280FD04D
:100D30000528306810D020F001003060306820F0C5
:100D400004003060A868B8B1FFF7FAFC00900FE02B
:100D5000306840F00100F4E740F004003060F7E74D
:100D6000FFF7EEFC0099411A41F28830814264D8C5
:100D700030688007F4D50EE0FFF7E2FC009007E052
:100D8000FFF7DEFC0099411A41F28830814254D8C5
:100D900030688007F4D42FB1DAF8001021F08051C8
:100DA000CAF80010A869C0B3DBF80010C1F38101D4
:100DB00002294AD00228484607D0C8F86000FFF749
:100DC000BFFC00E039E005463AE04746C8F860005D
:100DD000FFF7B6FC064604E0FFF7B2FC801B0228D2
:100DE0002BD820688001F7D4D5E907010843A96A08
:100DF0001C4A490802EB01416A6A41EA8211084330
:100E000095F82C1040EA01611148001F0160012093
:100E10003866FFF795FC054605E014E0FFF790FC07
:100E2000401B022809D820688001F7D50BE000BFDD
:100E3000FFF786FC401B022802D90320BDE8F88F8B
:100E400020688001F4D40020F8E70120F6E70000D4
:100E5000083802400038024000004742800E4742F6
:100E6000007000400000FFFFFEB5044603200D4661
:100E700084F83400606C032820D0B5F5805F1DD065
:100E8000B5F5006F05D045B1A06B40F00060A063E0
:100E900009E0204601F095F802E0204601F06AF8EA
:100EA000A16B0143A163A06B012658B1216840F2F8
:100EB000FF50886384F834600120FEBDA06B40F0D1
:100EC0008050E4E7211DD4E905700EC90095CDE9F5
:100ED0000170206800F0A7FC84F834600020FEBD9B
:100EE000F0B5426E120E93090B70C2F383034B7080
:100EF00002F003028A70426E120CCA70B0F86420CD
:100F0000120A0A7190F864204A71826E4FF6FF73DC
:100F1000120E03EA0212CA80826ECB88C2F3074225
:100F200043EA1213CB8002F00F020A72B0F8682075
:100F3000C2F30722D3094B72C2F380138B72C2F340
:100F40004013CB72C2F300130B7300264E73446C34
:100F50004FF4007701236CB1012C43D0026840F2BA
:100F6000FF519163816B41F08051816380F834308F
:100F70000120F0BD9207120D0A6190F868200C69FB
:100F800044EA82020A61C26E0C69120E44EA9214AB
:100F90000C61C2F3C2040C7502F007024A75C26EFE
:100FA000C2F3074254098C75C2F38204CC759207D0
:100FB000520F0A76B0F86C20C2F307240A7E42EA88
:100FC000D4120A760A69521C42650D7EAD1CAA40F5
:100FD00042650D7A03FA05F585656D0A6A43C0E935
:100FE00017271CE090F868209206920A0A61C26EE8
:100FF0000C69120E44EA02220A61C26E0C69C2F345
:10100000074214430C61B0F86C20C2F307240A694C
:10101000521C4FEA82224265C0E916720766C4F389
:10102000801201F8192F4FEA84624FEA52624A7027
:1010300010F86C2F4C7844EAD2144C7002F07F0206
:101040008A7042684FEA12624FEAD214CC70C2F33F
:1010500041140C71C2F382044C714FEA82724FEA60
:1010600012728A7142688C79C2F3074244EA921480
:101070008C71C2F34014CC710E7202F001024A72FC
:101080008288C2F307224FEAD2148C72C2F3801412
:10109000CC72C2F340140C73C2F300144C73C2F34D
:1010A00081048C7302F00302CA7300794FEA500086
:1010B00008744B744FF00000F0BD70B5040004D00C
:1010C00094F83400002510B105E0012070BD2577AB
:1010D000204600F037F8032084F83400204600F062
:1010E00007F8A5632563012084F83400002070BD53
:1010F000FEB50025044676200095CDE901502B462B
:101100002A462946206800F08EFB0D4E46F8A05F67
:10111000206800F09AFB012535600220FFF7CCF92A
:10112000204600F0D6FE20B9204600F05FFE0028E1
:1011300005D084F83450A16B0143A1630120FEBDAA
:1011400000802542F0B50068134987B0884221D15C
:1011500012480024016841F4006101600068022522
:1011600000F4006005904FF4F850CDE9000502AAA4
:1011700003260C2782E8D00069460948FFF7FEF9EC
:101180000420CDE9000502AA694682E8D00005489E
:10119000FFF7F4F907B0F0BD002C014044380240DD
:1011A00000080240000C024070B515460E460400CF
:1011B00003D094F8490010B107E0012070BD002071
:1011C00084F84800204600F01AF804F1080120686D
:1011D000FFF7D8F83146A2682068FFF7FDF8D4E998
:1011E00001022946236BFFF7ADF8A168206850F88B
:1011F000212042F0010240F82120002070BDFFF7BD
:101200006DB94FF0E0210428086903D020F00400F4
:101210000861704740F00400FAE710B5401EB0F1D5
:10122000807F01D3012010BD4FF0E02460610F21C9
:10123000601700F0CCFA0020A06107202061002098
:1012400010BD7047704710B5040003D094F8390002
:1012500010B107E0012010BD002084F838002046BE
:1012600000F00CF8022084F83900211D206800F0FD
:1012700053FF012084F83900002010BD7047016839
:10128000CA6842F00102CA600068016841F00101C9
:10129000016000207047704770B50446006801691E
:1012A0004FF00005C943890715D4C168C9438907B0
:1012B00011D4E91E01610120207620688069800731
:1012C000204602D0FFF7E7FF04E000F098F8204640
:1012D00000F096F8257620680169C943490717D4BC
:1012E000C168C943490713D46FF0040101610220AA
:1012F00020762068806910F4407F204602D0FFF7F6
:10130000CAFF04E000F07BF8204600F079F825766B
:1013100020680169C943090716D4C168C943090790
:1013200012D46FF008010161042020762068C069A2
:101330008007204602D0FFF7AEFF04E000F05FF820
:10134000204600F05DF8257620680169C943C9068A
:1013500017D4C168C943C90613D46FF010010161E5
:10136000082020762068C06910F4407F204602D013
:10137000FFF791FF04E000F042F8204600F040F84B
:10138000257620680169C943C90708D1C168C943E6
:10139000C90704D1891E0161204600F033F8206896
:1013A0000169C943090609D4C168C943090605D4BE
:1013B0006FF0800101612046FFF743FF206801695B
:1013C000C943490609D4C168C943490605D46FF029
:1013D00040010161204600F01FF820680169C943FF
:1013E00089060BD4C168C943890607D46FF0200170
:1013F00001612046BDE87040FFF724BF70BD704713
:101400007047000000680349884201D1FFF79EB988
:1014100070470000001400407047704770B50268C4
:1014200004461068D168536910F00F0F50D003F0D4
:10143000010501F4907635435DD0C20705D0CA0599
:1014400003D5E26B42F00102E263420705D5DA07F9
:1014500003D0E26B42F00202E263820705D5DA07AD
:1014600003D0E26B42F00402E263020705D5DA071B
:1014700003D0E26B42F00802E263E26B002A33D051
:10148000800604D5880602D5204600F0BBFE206801
:101490004069E16BC0F38010090700D428B32046EF
:1014A00000F0A2FE2068416949061AD5416921F081
:1014B00040014161606BA0B11B490165606BFEF7A3
:1014C000E9FF002810D0606B016DBDE8704008474F
:1014D000830610D58B060ED52046BDE8704000F07F
:1014E00091BE2046FFF799FF70BD2046FFF795FF9C
:1014F0000020E06370BD030606D50B0604D5204628
:10150000BDE8704001F01AB84006F3D54806F1D5A1
:10151000D168204621F04001D160202184F83910A3
:1015200000F065F870BD0000D921000870B5040016
:1015300004D094F83900002510B106E0012070BDF8
:1015400084F83850204600F023F8242084F839002D
:101550002068C16821F40051C160204600F098FE67
:101560002068016921F4904101612068416921F0FE
:101570002A0141612068C16841F40051C160E563FE
:10158000202084F8390084F83A00002070BD000063
:1015900000B50068124987B088421FD11148016820
:1015A00041F0100101600068694600F010000590EC
:1015B0004FF4C060009002200190012002900320AF
:1015C0000390072004900848FEF7D8FF0022052169
:1015D0002520FFF765F92520FFF756F907B000BD74
:1015E000001001404438024000000240704770473C
:1015F000FEE7000000B5174887B04FF020410160BA
:10160000154941600421816000211022C160C0E9B8
:1016100004128161C161016241628162C162016340
:101620004163816341640F20FF230090CDE90103F2
:10163000CDE903021120CDE90501002269460548E4
:10164000FFF7B2FD002803D0602104A000F0AFFF37
:1016500007B000BD7C000020040100A02E2E2F53F7
:1016600072632F66736D632E6300000070B52B48A4
:1016700086B00025016841F020010160016801F099
:1016800020010591016841F080010160016801F0CD
:1016900080010591016841F040010160016801F09D
:1016A00040010591016841F010010160016801F0FD
:1016B00010010591016841F008010160016801F025
:1016C00008010591016841F004010160016801F021
:1016D00004010591016841F001010160016801F018
:1016E00001010591016841F00201016000680C4EA2
:1016F00000F002004FF4C0640590002221463046FD
:10170000FFF718F80120CDE900400220CDE9025092
:1017100069463046FEF732FF06B070BD30380240F1
:1017200000140240104810B50E49016000214160CC
:101730008160C160016141618161FFF7BEFC18B148
:101740004B210AA000F033FF4FF400610648FFF779
:101750008BFB002805D0BDE81040502103A000F00D
:1017600026BF10BD002C0140CC0000202E2E2F5390
:1017700072632F7364696F2E630000000D4810B50B
:101780000B4901604FF4E1314160002181600C227E
:10179000C160C0E904128161C161FFF7C7FE002882
:1017A00005D0BDE810404C2103A000F000BF10BDE3
:1017B00000100140500100202E2E2F5372632F7510
:1017C000736172742E630000FEE7FFF7B1B9090779
:1017D000090E002806DA00F00F0000F1E02080F882
:1017E000141D704700F1E02080F8001470470A686B
:1017F00042624A688262D1E902231A43D1E9043184
:101800000B43C16A1A4321F0F7011143C162002062
:101810007047006800F00300704708B508441430B2
:101820000090006808BD70B50DF1100C11439CE8E4
:1018300070002343194329434268314347F6FF634D
:101840009A430A434260002070BD032101600020DA
:101850007047D0F8800070470A688260D1E90123A0
:101860001A43D1E903310B43C1681A436FF30B01EB
:101870001143C1600020704710B586B00446372080
:10188000CDE9001040200290002003904FF48060CA
:10189000049069462046FFF7DFFF41F28832372186
:1018A000204600F021F906B010BD000010B5044636
:1018B0000A4886B001432920CDE90010402002905B
:1018C000002003904FF48060049069462046FFF7A3
:1018D000C3FF204600F0BEF906B010BD0000108026
:1018E00010B586B004461020CDE9001040200290CB
:1018F000002003904FF48060049069462046FFF773
:10190000ABFF41F288321021204600F0EDF806B01E
:1019100010BD10B586B004460620CDE90010402069
:101920000290002003904FF48060049069462046A6
:10193000FFF792FF41F288320621204600F0D4F8EA
:1019400006B010BD30B585B0002405460094019462
:101950004FF480600294CDE9034069462846FFF7C2
:101960007BFF0B484FF4FA510068B0FBF1F041F2F5
:1019700088314843401E03D24FF0004005B030BDCF
:10198000696B0906F6D540F2FF50A8632046F5E7DB
:101990000C00002070B585B004464FF4D57000905F
:1019A00008204026CDE901060025C001CDE90350FD
:1019B00069462046FFF750FF0F484FF4FA51006880
:1019C000B0FBF1F041F288314843401E02D24FF0A3
:1019D00000450DE0616B11F0450FF6D0606B4007DC
:1019E00002D5A663042503E0606B400600D5A6631C
:1019F00005B0284670BD00000C00002010B586B070
:101A000004460720CDE900204020029000200390EA
:101A10004FF48060049069462046FFF71DFF41F2B5
:101A200088320721204600F05FF806B010BD10B5DF
:101A300086B0044600210220CDE90010C020CDE987
:101A400002014FF48060049069462046FFF704FFCE
:101A5000204600F0D7F806B010BD10B586B0044699
:101A60000920CDE90010C0200290002003904FF41F
:101A70008060049069462046FFF7EEFE204600F0A5
:101A8000C1F806B010BD10B586B004460021332061
:101A9000CDE900104020CDE9020100010490694623
:101AA0002046FFF7D9FE41F288323321204600F06C
:101AB0001BF806B010BD30B585B00C4605460021B8
:101AC0000320CDE900104020CDE90201000104907F
:101AD00069462846FFF7C0FE22460321284600F04B
:101AE000D9F805B030BD0000444B10B51B684FF469
:101AF000FA54B3FBF4F353435B1E02D24FF00040A1
:101B000010BD426B12F0450FF6D0426B520703D561
:101B100004218163084610BD426BD20702D0012127
:101B2000816303E00269D2B28A4201D0012010BD74
:101B300040F2FF5181630021FFF76FFE30490842F8
:101B400001D1002010BD002802DA4FF0007010BD56
:101B5000410001D5402010BD810001D5802010BD7D
:101B6000C10002D54FF4807010BD010102D54FF4C1
:101B7000007010BD410102D54FF4806010BDC1015D
:101B800002D54FF4006010BD010202D54FF4805021
:101B900010BD410202D54FF4005010BD810202D5A4
:101BA0004FF4804010BDC10202D54FF4004010BD7B
:101BB000410302D54FF4003010BD810302D54FF42C
:101BC000802010BDC10302D54FF4002010BD0104D8
:101BD00002D54FF4801010BD410402D54FF400101F
:101BE00010BD810402D54FF4800010BD000702D55E
:101BF0004FF4000010BD4FF4803010BD0C000020E9
:101C000008E0FFFD12494FF4FA520968B1FBF2F106
:101C100041F288325143491E02D24FF000407047D2
:101C2000426B12F0450FF6D0416B490703D50421F2
:101C3000816308467047416BC90703D00121816366
:101C40000846704740F2FF51816300207047000052
:101C50000C0000200E494FF4FA520968B1FBF2F172
:101C600041F288325143491E02D24FF00040704782
:101C7000426B12F0450FF6D0416B490703D50421A2
:101C800081630846704740F2FF518163002070472E
:101C90000C0000201F4B10B51B684FF4FA54B3FB27
:101CA000F4F341F2883463435B1E02D24FF00040EC
:101CB00010BD446B14F0450FF6D0436B5B0703D5A2
:101CC00004218163084610BD436BDB0702D001216C
:101CD000816303E00369DBB28B4201D0012010BDB8
:101CE00040F2FF5181630021FFF797FD10F4604F30
:101CF00004D0410406D54FF4005010BD000C1080F4
:101D0000002010BD000402D54FF4805010BD4FF4E8
:101D1000803010BD0C0000202DE9F04F89B00E4638
:101D20000446FEF70DFD00258346009501952F46DC
:101D300008212068FFF7D4FD002834D1B4F8500002
:101D400001042068FFF798FD00282CD1401E4FF0B9
:101D50000808CDE9020830204FF00209CDE9040956
:101D60000120CDE9067002A92068FFF740FD206838
:101D7000FFF789FE002816D1EA4640F22A4720687C
:101D8000416B394212D1416B890204D5FFF761FDE5
:101D90004AF825006D1CFEF7D3FCA0EB0B00401C9D
:101DA000EDD14FF0004009B0BDE8F08F416B09075D
:101DB00003D5C0F838800820F5E7416B890703D5C3
:101DC000C0F838900220EEE7416B890603D5202148
:101DD00081630846E7E740F2FF518163009800BA4B
:101DE0007060019800BA30600020DCE710B590B058
:101DF00004460120ADF838002068FFF70AFD0028EE
:101E000064D0606C032842D02068FFF710FE0028E1
:101E10005AD100212068FFF700FD60670421206887
:101E2000FFF7FBFCA06708212068FFF7F6FCE067DE
:101E30000C212068FFF7F1FCC4F88000606C0328D7
:101E400025D00EA92068FFF736FE00283CD1606C33
:101E500003281CD0BDF83800206501042068FFF776
:101E6000FCFD002830D100212068FFF7D6FC606619
:101E700004212068FFF7D1FCA06608212068FFF745
:101E8000CCFCE0660C212068FFF7C7FC206704212A
:101E90002068FFF7C2FC000DE06403A92046FFF7AD
:101EA0001FF8B4F85000002302042068FFF7A6FDD5
:101EB000002809D104F1100007C88DE8070094E854
:101EC0000F00FFF7B0FC002010B010BD4FF0806095
:101ED000FAE72DE9F8430025044600950068FFF76E
:101EE00031FD00281AD12068FFF754FD4FF08078AB
:101EF0004FF6FF76D8B14FF08057A5640098411C8B
:101F00000091B0421AD000212068FFF7B5FC20B93B
:101F100000212068FFF7CAFC10B13846BDE8F883FD
:101F200000212068FFF779FCC00FE7D01FE00127F0
:101F3000A7640098411C0091B04201D14046EDE7F2
:101F400000212068FFF798FC0028E7D14FF080417E
:101F50002068FFF7ABFC0028E0D100212068FFF7E4
:101F60005CFCC10FE5D0400001D5676400E065640A
:101F70000020D3E71CB5044600200090019000210A
:101F80002068FFF74AFC800102D54FF400601CBDB9
:101F900069462046FFF7C0FE0028F8D10198C0032B
:101FA0000CD5B4F8500001042068FFF765FC002848
:101FB000EDD100212068FFF7ACFC1CBD4FF0806024
:101FC0001CBD1CB504460020009001900021206833
:101FD000FFF723FC800102D54FF400601CBD694669
:101FE0002046FFF799FE0028F8D1019840030CD550
:101FF000B4F8500001042068FFF73EFC0028EDD142
:1020000002212068FFF785FC1CBD4FF080601CBDDD
:1020100000F015BB30B5264893B00025016841F0AB
:1020200080510160006800F08050119021480168E3
:1020300041F4804101600068022400F48040119066
:1020400001200090000401908001CDE906400420A9
:102050000890A820CDE9090407200B906846FEF7F8
:1020600075FD00B1FEE70CA90F2081E831004FF4A7
:10207000A0500F904FF48050109005210CA8FEF74F
:1020800043FC00B1FEE7FEF7D7FCFEF7FBFC4FF484
:102090007A71B0FBF1F0FFF7C0F80420FFF7B1F858
:1020A00000220F21501EFEF7FBFB13B030BD0000D5
:1020B00040380240007000401048016841F470014F
:1020C00001600F48016841F0010101600C4A0021E4
:1020D0000832116002680B4B1A400260031D0A4A65
:1020E0001A60026822F48022026005480C30016008
:1020F00002495806803908607047000088ED00E00A
:1021000000380240FFFFF6FE103000240148FFF7C0
:10211000C3B8000090010020F0B50268234B244DA5
:10212000244E254F254C4FF0804C984209D06045F5
:1021300007D0A84205D0B04203D0B84201D0A04297
:1021400004D122F0700E4A6842EA0E0298421BD077
:10215000604519D0A84217D0B04215D0B84213D06C
:10216000A04211D0164DA8420ED0164DA8420BD059
:10217000154DA84208D0154DA84205D0144DA842CF
:1021800002D0144DA84203D122F44075CA682A43F4
:1021900002608A68C2620A688262984201D0A042E4
:1021A00001D10969016301214161F0BD00000140D5
:1021B0000004004000080040000C00400004014002
:1021C0000040014000440140004801400018004028
:1021D000001C00400020004010B5806B0021C1852C
:1021E000C184FFF71AF910BD0168CA6822F4907221
:1021F000CA6001684A6922F001024A61202180F820
:102200003A10704710B590F83A10222901D00220F8
:1022100010BD8168B1F5805F11D0016900290168A6
:102220001FD0496801F07F03816A4A1C82620B70EB
:10223000C18D491E0904090CC18518D026E0026928
:10224000816A002A0268526805D0D2B20A80816A87
:10225000491C8162ECE7C2F308020A80816A891C8A
:10226000F7E74A68816A4B1C83620A70E0E70168FD
:10227000CA6822F49072CA6001684A6922F00102B9
:102280004A61202180F83A10FFF7B0F9002010BD14
:102290002DE9F04104460068016921F44052E168EB
:1022A000114301612168C86849F20C6290432369B7
:1022B000A268E5691A4363692B431A430243CA6063
:1022C0002168486920F44072A06910434861E169BF
:1022D0006425B1F5004F9748974A21684FF03208BE
:1022E0003FD0914201D081427CD1FEF7E1FB00EB6F
:1022F000C00101EB001061688900B0FBF1F6FEF748
:10230000D7FB00EBC00101EB001061688900B0FB56
:10231000F1F0B0FBF5F06FF01801484306EB8001D7
:1023200008EB0110B0FBF5F000F0F006FEF7C0FB83
:1023300000EBC00101EB001061688900B0FBF1F017
:10234000B0FBF5F006EB0016FEF7B2FB00EBC001A8
:1023500001EB001061688900B0FBF1F7FEF7A8FB04
:10236000D2E0914201D081423DD1FEF7A1FB00EBCA
:10237000C00101EB001061684900B0FBF1F0B0FB57
:10238000F5F00601FEF794FB00EBC00101EB001035
:1023900061684900B0FBF1F7FEF78AFB00EBC00172
:1023A00001EB001061684900B0FBF1F0B0FBF5F003
:1023B0006FF01801484307EB800108EBC100B0FB48
:1023C000F5F000F0F80006EB4006FEF771FB00EBBD
:1023D000C00101EB001061684900B0FBF1F7FEF7A6
:1023E00067FB3CE055E0FEF753FB00EBC00101EB5F
:1023F000001061684900B0FBF1F0B0FBF5F0060198
:10240000FEF746FB00EBC00101EB001061684900DC
:10241000B0FBF1F7FEF73CFB00EBC00101EB001055
:1024200061684900B0FBF1F0B0FBF5F06FF0180106
:10243000484307EB800108EBC100B0FBF5F000F06A
:10244000F80006EB4006FEF723FB00EBC00101EBB2
:10245000001061684900B0FBF1F7FEF719FB00EBD3
:10246000C00101EB001061684900B0FBF1F0B0FB66
:10247000F5F06FF01801484307EB800108EBC1004D
:10248000B0FBF5F000F00700216830448860BDE83B
:10249000F081FEF7FDFA00EBC00101EB001061686E
:1024A0008900B0FBF1F6FEF7F3FA00EBC00101EB97
:1024B000001061688900B0FBF1F0B0FBF5F06FF03F
:1024C0001801484306EB800108EB0110B0FBF5F062
:1024D00000F0F006FEF7DCFA00EBC00101EB0010A3
:1024E00061688900B0FBF1F0B0FBF5F006EB001677
:1024F000FEF7CEFA00EBC00101EB00106168890025
:10250000B0FBF1F7FEF7C4FA00EBC00101EB0010DD
:1025100061688900B0FBF1F0B0FBF5F06FF01801D5
:10252000484307EB800108EB0110B0FBF5F000F029
:102530000F00A9E7001401400010014090F8391085
:10254000212901D0022070478168B1F5805F016ABE
:102550000BD04A1C0262026809785160C18C491E86
:102560000904090CC1840ED017E009880268C1F380
:102570000801516001690029016A02D0491C016209
:10258000ECE7891CFBE70168CA6822F08002CA6098
:102590000068C16841F04001C16000207047000040
:1025A0000148FEF73BBF000050010020FEE7FEE7B8
:1025B00002E008C8121F08C1002AFAD1704770470C
:1025C000002001E001C1121F002AFBD1704700006A
:1025D0001CB5FEF7C3F8FFF71DFD1048016841F078
:1025E00010010160006800F010000090FFF73EF855
:1025F000FFF798F8FFF7C2F8FEF7FCFFFDF70EFFB4
:1026000007490120CDE900010023802205A10848E7
:1026100000F020FC00F00EF8FEE700004438024015
:102620000000002073746172745F7461736B00004A
:10263000952A000810B500F01DFB002010BD10B554
:1026400000F034FC012803D0BDE8104000F0ECBBE2
:1026500010BD00002DE9F041184C0F460546E66814
:102660002068001D00F02AFA38B9206890F82C1074
:1026700001208840216981432161681C07D137B15D
:102680002168BDE8F0410E48091D00F04FBA2068EE
:102690003544B5424560216805D2A06BBDE8F041E4
:1026A000091D00F02BBA606B091D00F027FAA06A23
:1026B000854200D2A562BDE8F08100004000002004
:1026C0005C3F00202DE9F041054600F03BFA2D4C1F
:1026D000A068401CA06020682B4F10B1606930B327
:1026E0002BE02560A068012827D1002606EB860094
:1026F00007EB800000F0F4F9761C102EF6D3234887
:1027000000F0EEF92148143000F0EAF91F482830B3
:1027100000F0E6F91D483C3000F0E2F91B4850306B
:1027200000F0DEF9194860631430A06305E020680A
:10273000E96AC06A884200D82560606A401C60620D
:10274000E96A0120226988401043206101EB810081
:1027500007EB8000291D00F0E9F900F013FA606929
:1027600000280CD02068E96AC06A884207D208496C
:102770004FF080500860BFF34F8FBFF36F8FBDE8FD
:10278000F081000040000020CC3D00200C3F0020E4
:1027900004ED00E070B5114E114C17E000F09EFA08
:1027A0003068B8B100F0F4FB00F0CCF9F068C5680F
:1027B000281D00F083F9A068401EA0606068401EDC
:1027C000606000F0DFF9284600F00CF8606800282F
:1027D000E4D170BD00F0DCFBF8E70000483F0020CA
:1027E0004000002010B50446006B00F0DFF92046E1
:1027F000BDE8104000F0DAB910484FF470514207BC
:1028000006D0C01D0D4920F00700411AC1F57051D6
:102810000B4A00230144C2E900030839103A21F0B1
:10282000070111604B600B600B1AC0E90013936045
:102830004FF000405360D06070470000CC01002092
:102840002C000020074C4FF08056074DFFF7A2FFE9
:1028500020680128FAD92E60BFF34F8FBFF36F8F26
:10286000F4E70000CC3D002004ED00E02DE9F04746
:102870009A46DDE9098481466FF00303206B03EB80
:1028800082021044089D20F00706700707D05020F0
:1028900080F31188BFF34F8FBFF36F8FFEE72318CC
:1028A0000A5C83F834200A5C12B1401C1028F6D36D
:1028B000002784F84370102D00D30F25E562C4E98A
:1028C0001157201D00F017F904F1180000F013F95A
:1028D0002461C5F110006462A061E76484F850705F
:1028E00052464946304600F0BFF82060B8F1000F6C
:1028F00001D0C8F80040BDE8F087000030B51149AC
:1029000000E011460A688242FBD34B685C1884429F
:1029100003D1406818444860084643681C18944234
:1029200009D1084C103C2468A24209D052681A44CC
:1029300042600A6812680260814200D0086030BDBF
:102940000460F9E72C0000200648416B096829B1B2
:10295000416BC968C9684968816270474FF0FF31AF
:10296000FAE700004000002008484068401C4FF093
:10297000500080F3118804D0BFF34F8FBFF36F8FE7
:10298000FEE7BFF34F8FBFF36F8FFEE734000020E9
:102990002DE9F0410546002700F0A0F9314E3068DE
:1029A00008B9FFF729FFF06805424BD1C5B30835D8
:1029B00068070ED005F00700C0F10800054468075D
:1029C00007D0502080F31188BFF34F8FBFF36F8F74
:1029D000FEE72DB37068854234D822481030014696
:1029E0000C6801E020460C466168A94202D22168C9
:1029F0000029F7D131688C4224D007682168016032
:102A000060680837411B10290FD96019420708D0A8
:102A1000502080F31188BFF34F8FBFF36F8FFEE715
:102A200010E041606560FFF769FF61687068401AF7
:102A30007060B268904200D2B060F068014300203C
:102A4000C4E9000100F0A4FA780707D0502080F311
:102A50001188BFF34F8FBFF36F8FFEE73846BDE895
:102A6000F08100001C00002010B5031F4FF080749F
:102A70001C601B1F21F001011960191F044B0B6022
:102A800014390A60091F6FF0020244380A6010BD51
:102A900069290008084C4FF4007526154FF47A7721
:102AA00029462046FDF742FE31462046FDF73EFE10
:102AB000384600F0B9F8F3E700140240D0E90132DB
:102AC00001699A60D0E901235A604A68824201D1C3
:102AD00082684A60002202610868401E08607047F0
:102AE00000F108014FF0FF32C0E90112C16001613D
:102AF00000210160704700210161704730B50B680B
:102B00005A1C02D000F1080202E0026904E02246E9
:102B1000546825689D42FAD953684B6099608A6071
:102B2000516008610168491C016030BD42684A601B
:102B300093688B6093685960916008610168491CD3
:102B400001607047502080F31188BFF34F8FBFF3AF
:102B50006F8F0A494868401C486001280CD108481A
:102B6000006810F0FF0F07D0502080F31188BFF3EA
:102B70004F8FBFF36F8FFEE77047000034000020D7
:102B800004ED00E00849486828B1401E486001D1C2
:102B900080F311887047502080F31188BFF34F8F66
:102BA000BFF36F8FFEE700003400002070B50028EF
:102BB00027D0144DA0F108046168E868014207D1EC
:102BC000502080F31188BFF34F8FBFF36F8FFEE764
:102BD00022683AB1502080F31188BFF34F8FBFF3C2
:102BE0006F8FFEE78143616000F078F86068696884
:102BF000084468602046FFF781FEBDE8704000F0A1
:102C0000C7B970BD1C00002006484FF47A710068F7
:102C1000B0FBF1F14FF0E020491E41610721016155
:102C2000704700000C00002010B5020014D00F48BF
:102C3000006B38B1502080F31188BFF34F8FBFF382
:102C40006F8FFEE700F04AF800211046FFF702FD03
:102C500000F09EF9002807D105494FF08050086028
:102C6000BFF34F8FBFF36F8F10BD000040000020F7
:102C700004ED00E01CB515480024CDE900402346D2
:102C8000802213A1144800F0E5F8012809D0401C67
:102C90001AD1502080F31188BFF34F8FBFF36F8F8D
:102CA000FEE7502080F31188BFF34F8FBFF36F8F83
:102CB00006484FF0FF312C38816201214161C46028
:102CC000BDE81C4000F040B81CBD00006C000020B6
:102CD00049444C4500000000452800080248016BAB
:102CE000491C016370470000400000201448016B3C
:102CF00011B10121C16170470021C1610169B1FABF
:102D000081F1C1F11F0101EB81020E4951F822301E
:102D10006BB101EB820101F108034A6852684A6015
:102D20009A4201D152684A60D168016070475020D0
:102D300080F31188BFF34F8FBFF36F8FFEE7000062
:102D400040000020CC3D00201CB532480168324ACA
:102D5000914207D1502080F31188BFF34F8FBFF30A
:102D60006F8FFEE700682C49491E884207D150202A
:102D700080F31188BFF34F8FBFF36F8FFEE72749B2
:102D800008780190FF20087008788DF800009DF801
:102D900000009DF8002000F0F000904207D0502085
:102DA00080F31188BFF34F8FBFF36F8FFEE79DF85D
:102DB00000001B4A00F0500010700720906005E0F2
:102DC0009DF800305B008DF80030401E9DF800300B
:102DD0001B06F5D4000200F4E060906001980870D2
:102DE0000C482030016841F470010160016841F035
:102DF00070410160FFF708FF00205060FDF7EEF919
:102E00000848016841F040410160FDF7D7F9002012
:102E10001CBD000000ED00E071C20F4100E400E0C5
:102E20003400002034EF00E010B5502080F311880A
:102E3000BFF34F8FBFF36F8F00F046F818B104490E
:102E40004FF080500860002080F3118810BD000012
:102E500004ED00E02DE9FF5F8346DDE90E8799462A
:102E600016468A469000FFF793FD05001AD05420BD
:102E7000FFF78EFD040012D025630021CDE9024149
:102E8000CDE900874B46324651465846FFF7EEFCE7
:102E90002046FFF717FC012004B0BDE8F09F28464C
:102EA000FFF784FE4FF0FF30F6E700000548416968
:102EB00019B1006B18B10020704701207047022043
:102EC00070470000400000202DE9F0412E4C002703
:102ED000206B40B1A069401CA061E06900B10127EE
:102EE0003846BDE8F081E668761CE66013D1606B79
:102EF000006838B1502080F31188BFF34F8FBFF3C3
:102F00006F8FFEE7606BA16B6163A063206A401C5A
:102F10002062FFF719FDA06ADFF87080864209D3AE
:102F2000606B006880B1606BC068C5686868864285
:102F30000DD2A0622068C06A00EB800158F8210021
:102F40000128CAD90127C8E74FF0FF30F1E7281D53
:102F5000FFF7B4FDA86A18B105F11800FFF7AEFD40
:102F6000E86A0121226981401143216100EB80015F
:102F700008EB8100291DFFF7D9FDE86A2168C96ABD
:102F80008842CDD30127CBE740000020CC3D002074
:102F90002DE9F0472C4D00242746286B38B1FFF768
:102FA000D1FD286B401E2863286B40B146E05020BD
:102FB00080F31188BFF34F8FBFF36F8FFEE7A968CF
:102FC000224E0120D1B3A6F5B47980463068E8B12D
:102FD000F068C46804F11800FFF770FD201DFFF7CA
:102FE0006DFDE06A2A6908FA00F11143296100EBDE
:102FF000800109EB8100211DFFF798FDE06A296837
:10300000C96A8842E2D3C5F81C80DFE70CB1FFF73C
:103010009BFCAC6944B14646FFF756FF00B1EE6138
:10302000641EF9D10020A861E86938B10849012778
:1030300038070860BFF34F8FBFF36F8FFFF7A2FD14
:103040003846BDE8F087000040000020343F0020F3
:1030500004ED00E000000000000000000102030495
:103060000607080900000000010203048C30000874
:10307000000000207C000000B02500080831000896
:103080007C000020F44E0000C02500080000000075
:1030900000000000000000000024F4000100000017
:1030A0001000000000000000000000000000000010
:1030B0000000000000000000000000000000000010
:1030C00000000000AAAAAAAA000000000000000058
:1030D00000000000000000000000000000000000F0
:1030E00000000000000000000000000000000000E0
:1030F00000000000000000000000000000000000D0
:083100000000000000000000C7
:040000050800018965
:00000001FF
